:020000040800F2
:1000000058080020BD010008DD1C0008DF1C0008A6
:10001000E31C0008E71C0008EB1C000800000000BF
:10002000000000000000000000000000EF1C0008BD
:10003000F11C000800000000F31C0008F51C00087B
:10004000D7010008D7010008D7010008D701000830
:10005000D7010008D7010008D7010008D701000820
:10006000D7010008D7010008D7010008D701000810
:10007000D7010008D7010008D7010008D701000800
:10008000D7010008D7010008D701000800000000D0
:10009000000000000000000000000000D701000880
:1000A000D7010008D7010008D7010008D7010008D0
:1000B000D7010008D7010008D7010008D7010008C0
:1000C000D7010008D7010008D7010008D7010008B0
:1000D000D70100083F1D0008D7010008D70100081C
:1000E000D7010008D7010008D70100080000000070
:1000F0000000000000000000000000000000000000
:1001000000000000000000000000000000000000EF
:100110000000000000000000D7010008D70100081F
:1001200000F002F800F03AF80AA090E8000C8244CF
:100130008344AAF10107DA4501D100F02FF8AFF2AC
:10014000090EBAE80F0013F0010F18BFFB1A43F0B5
:1001500001031847982A0000B82A0000103A24BF6B
:1001600078C878C1FAD8520724BF30C830C144BF1C
:1001700004680C607047000000230024002500265E
:10018000103A28BF78C1FBD8520728BF30C148BFFA
:100190000B6070471FB51FBD10B510BD02F099FC74
:1001A0001146FFF7F7FF01F08AFD02F0B7FC03B438
:1001B000FFF7F2FF03BC02F0BBFC000009488047D8
:1001C00009480047FEE7FEE7FEE7FEE7FEE7FEE739
:1001D000FEE7FEE7FEE7FEE704480549054A064B51
:1001E00070470000B50200082101000858020020F5
:1001F0005808002058040020580400200CB50020A6
:10020000019000906248006840F4803060490860C6
:1002100000BF5F48006800F4003000900198401C67
:100220000190009818B90198B0F5A06FF1D1584825
:10023000006810F4003F02D00120009001E000208F
:1002400000900098012830D15148406850494860DA
:10025000084640684860084640684860084640686C
:1002600020F47C1048600846406840F498104860CC
:100270000846006840F08070086000BF444800688D
:1002800010F0007FFAD04248406820F00300404957
:1002900048600846406840F00200486000BF3C48A3
:1002A000406800F00C000828F9D10CBD10B5FFF72C
:1002B000A5FF10BD10B53648006840F00100344974
:1002C000086008464068334908403149486008469C
:1002D0000068314908402E4908600846006820F44B
:1002E000802008600846406820F4FE0048604FF413
:1002F0001F0088600020C862FFF7D8FF4FF0006041
:100300002649086010BD30B50021002000220023DE
:100310001F4C646804F00C0121B1042906D008299F
:1003200025D107E01E4C1F4D2C6024E01C4C1D4DB8
:100330002C6020E0164C646804F47010144C64685F
:1003400004F48032022404EB904022B9164C44435A
:10035000144D2C600AE00E4CE46A04F00F04631C98
:100360000F4CB4FBF3F444430E4D2C6003E00C4CF3
:100370000C4D2C6000BF00BF054C6468C4F303142F
:100380000A4D295D074C2468CC40064D2C6030BDD9
:10039000001002400000FFF8FFFFF6FE08ED00E04D
:1003A00000127A000000002000093D000400002037
:1003B00031490143314A1160704770B50021002373
:1003C0000F22C4780CB32D4C246804F4E064C4F507
:1003D000E064210AC1F10403CA40447804FA03F13D
:1003E0008478144021430901254C0678A1550478EE
:1003F00004F01F050124AC4005786D114FF0E02694
:1004000006EB8505C5F8004109E0047804F01F05F6
:100410000124AC401B4D0678761145F8264070BD8E
:10042000194A0A400243154B1B1F1A60704739B125
:10043000124A121D12680243104B1B1D1A6006E07F
:100440000E4A121D126882430C4B1B1D1A60704726
:10045000042808D14FF0E021096941F004014FF070
:10046000E022116107E04FF0E021096921F0040169
:100470004FF0E022116170470000FA050CED00E03A
:1004800000E400E080E100E080FFFF1F10B50446BB
:10049000FA48844208D10121401501F062F9002197
:1004A000601501F05EF917E0F548844208D101219A
:1004B000001501F056F90021201501F052F90BE06A
:1004C000F048844208D10121C80301F04AF9002113
:1004D0004FF4004001F045F910BD30B50246002050
:1004E00000235068E84C20400D790C6844EA05244C
:1004F000204350609068E54C2040D1E902542C43E1
:100500004D7944EA450420439060D06A20F470009D
:100510000C7C641EE4B2234340EA0350D06230BD39
:1005200000210160017141718160C160012101748C
:10053000704721B1826842F00102826003E0826864
:1005400022F001028260704721B1826842F4807219
:10055000826003E0826822F480728260704710B586
:100560000023CBB21AB144681C43446002E04468E3
:100570009C43446010BD816841F008018160704770
:10058000014600208A6812F0080F01D0012000E027
:1005900000207047816841F0040181607047014686
:1005A00000208A6812F0040F01D0012000E0002032
:1005B000704721B1826842F4A002826003E0826841
:1005C00022F4A00282607047014600208A6812F47B
:1005D000800F01D0012000E00020704710B50A46CE
:1005E00000210023416821F46041531E41EA433158
:1005F000416010BD21B1426842F40062426003E0F4
:10060000426822F4006242607047F0B504460D462D
:1006100000200021092D11DDE068A5F10A0606EB96
:100620004607072606FA07F18843A5F10A0606EBF6
:10063000460603FA06F10843E0600CE0206905EB8A
:100640004507072606FA07F1884305EB450603FA36
:1006500006F108432061072A0FDA606B561E06EB8D
:1006600086071F2606FA07F18843561E06EB860604
:1006700005FA06F10843606322E00D2A0FDA206BC9
:10068000D61F06EB86071F2606FA07F18843D61FFA
:1006900006EB860605FA06F10843206310E0E06ADF
:1006A000A2F10D0606EB86071F2606FA07F188431E
:1006B000A2F10D0606EB860605FA06F10843E06294
:1006C000F0BD21B1826842F48012826003E082684A
:1006D00022F48012826070470146C86C80B2704775
:1006E00066484C300068704721B1426842F480622D
:1006F000426003E0426822F480624260704721B1A8
:10070000426842F48052426003E0426822F4805220
:10071000426070470A460021816821F4E04111439C
:100720008160704721B1826842F40042826003E038
:10073000826822F400428260704721B1826842F4EC
:100740000212826003E0826822F402128260704723
:10075000014600208A6812F4001F01D0012000E049
:1007600000207047F0B50446154600200022002600
:10077000092911DDE068A1F10A0707EB470C0727FB
:1007800007FA0CF29043A1F10A0707EB470703FAB7
:1007900007F21043E0600CE0206901EB410C0727F1
:1007A00007FA0CF2904301EB410703FA07F21043FA
:1007B0002061A06BC0F30156EF1C06F1010CA7EB02
:1007C0000C0707EB870C1F2707FA0CF29043EF1C6E
:1007D00006F1010CA7EB0C0707EB870701FA07F2FC
:1007E0001043A063F0BD10B50A4600210023816BC1
:1007F00021F44011531E41EA0351816310BD08B535
:10080000002300930090009B0B440093009B1A6010
:1008100008BD08B5024600200090009201F12800B2
:10082000009B184400900098006880B208BD0A46FA
:1008300000214168164B19401143416070474162E5
:10084000826270470A460021416821F01F0111436E
:100850004160704740B109490831096841F400011D
:10086000064A0832116007E004490831096821F49A
:100870000001024A08321160704700000024014064
:1008800000280140003C0140FFFEF0FFFDF7F1FFB2
:10089000FFFD3FFF0246002013680B4201D00120FC
:1008A00000E000207047CA430260704770B50246FE
:1008B0000020002300240B125568CEB205EA06047E
:1008C00015681D4202D00CB1012000E0002070BD6F
:1008D00000220A12D34303607047000001684FF6FC
:1008E000FE72114001600021016041608160C160C1
:1008F0008C49884208D18B490839496841F00F0179
:10090000884A083A51608AE086491431884208D101
:1009100084490839496841F0F001824A083A516037
:100920007DE080492831884208D17E4908394968EC
:1009300041F470617B4A083A516070E079493C317A
:10094000884208D177490839496841F47041754AAD
:10095000083A516063E073495031884208D17149C7
:100960000839496841F470216E4A083A516056E0EE
:100970006C496431884208D16A490839496841F4B0
:100980007001684A083A516049E066497831884206
:1009900008D164490839496841F07061614A083AF0
:1009A00051603CE06049884206D1011F096841F06E
:1009B0000F01021F116032E05B491431884208D1F7
:1009C0005949091F096841F0F001574A121F116087
:1009D00025E055492831884208D15349091F096843
:1009E00041F47061504A121F116018E04E493C31C9
:1009F000884208D14C49091F096841F470414A4AAC
:100A0000121F11600BE048495031884207D1464916
:100A1000091F096841F47021434A121F1160704791
:100A200010B50022026847F6F0739A430C6A8B688F
:100A300023430C6923434C6923438C692343CC69CA
:100A400023434C6A23438C6A23431A430260CB68D6
:100A500043600B6883604B68C36010BD0021016078
:100A600041608160C160016141618161C161016278
:100A700041628162704721B1026842F00102026066
:100A800004E002684FF6FE731A40026070471AB124
:100A900003680B43036002E003688B430360704705
:100AA000416070470146486880B2704701460020A7
:100AB000002211F0805F03D01B4B083B1A6802E054
:100AC000184B083B1A680A4201D0012000E00020C0
:100AD000704710F0805F03D01349091F086002E0DF
:100AE000104908394860704701460020002211F083
:100AF000805F03D00C4B083B1A6802E0094B083BAF
:100B00001A680A4201D0012000E00020704710F06E
:100B1000805F03D00449091F086002E001490839D9
:100B20004860704708000240080402400146002067
:100B3000FE4A106800F03800084310607047FB4917
:100B4000096821F00801F94A11601146096801435A
:100B500011607047F549096821F01001F34A1160EE
:100B600011460968014311607047F148EF49486038
:100B7000F04848607047EE48EC494860ED484860EE
:100B80007047EA48006940F08000E8490861704712
:100B9000E648006940F08000E4490861704704209D
:100BA000E249C96811F0010F01D001200EE0DF49D0
:100BB000C96811F0040F01D0022007E0DB49C968C1
:100BC00011F0100F01D0032000E00420704700B5A1
:100BD00002460423FFF7E3FF034603E0FFF7DFFFCE
:100BE0000346521E012B01D1002AF7D102B9052379
:100BF000184600BD30B5044604254FF43020FFF7F9
:100C0000E6FF0546042D17D1C848006940F00200F0
:100C1000C649086108464461006940F04000086127
:100C20004FF43020FFF7D3FF0546C048006941F676
:100C3000FD710840BD490861284630BD10B5042447
:100C40004FF43020FFF7C3FF0446042C16D1B748F9
:100C5000006940F00400B54908610846006940F0A9
:100C6000400008614FF43020FFF7B1FF0446AF4861
:100C7000006941F6FB710840AC490861204610BD8F
:100C800000B502460423FFF78AFF034603E0FFF79F
:100C900086FF0346521E012B01D1002AF7D102B96B
:100CA0000523184600BD10B504244FF43020FFF78B
:100CB000E7FF0446042C16D19C48006940F004006C
:100CC0009A4908610846006940F0400008614FF405
:100CD0003020FFF7D5FF04469448006941F6FB71C8
:100CE000084092490861204610BD00208F49C9691B
:100CF00011F0020F01D0012000E00020704730B554
:100D0000A5250424FFF7F1FF00B100254FF43020A2
:100D1000FFF75DFF0446042C3AD18548834988607B
:100D2000844888600846006940F020000861084651
:100D3000006940F0400008614FF43020FFF747FFA2
:100D40000446042C1BD17948006941F6DF71084044
:100D5000764908610846006940F01000086176484D
:100D60000580E002FFF733FF0446052C10D06F48E2
:100D7000006941F6EF7108406C49086108E0052CF4
:100D800006D06A48006941F6EF710840674908617A
:100D9000204630BD78B506460C460425002000905C
:100DA000E802FFF714FF0546042D24D15F480069CF
:100DB00040F001005D4908613480E802FFF707FF59
:100DC0000546042D10D1B01C0090200C009908801D
:100DD000E802FFF7FCFE05465448006941F6FE7143
:100DE00008405249086106E05048006941F6FE712A
:100DF00008404E490861284678BD70B504460D4646
:100E00000426F002FFF7E3FE0646042E11D1474800
:100E1000006940F00100454908612580F002FFF7B4
:100E2000D6FE06464148006941F6FE7108403F493A
:100E30000861304670BD70B505460E460424E002D8
:100E4000FFF7C5FE0446042C17D13948374988609E
:100E5000384888600846006940F0100008612E801C
:100E6000E002FFF7B4FE0446052C06D02F480069C7
:100E700041F6EF7108402D490861204670BD2DE90B
:100E8000F04304464FF6FF763746B046B146042598
:100E9000E443E6B2C4F30727C4F307484FEA1469F2
:100EA000E802FFF794FE0546042D49D120481F496A
:100EB0008860204888600846006940F0100008619A
:100EC000FF2E06D01C4808300680E802FFF77FFEA0
:100ED0000546042D08D1FF2F06D017480A30078099
:100EE000E802FFF774FE0546042D0AD1B8F1FF0FA2
:100EF00007D011480C30A0F80080E802FFF767FE29
:100F00000546042D0AD1B9F1FF0F07D00A480E306B
:100F1000A0F80090E802FFF75AFE0546052D0FD015
:100F20000248006941F6EF71084007E000200240E6
:100F300023016745AB89EFCD00F8FF1F66490861C3
:100F40002846BDE8F08330B5054604244FF4302030
:100F5000FFF73DFE0446042C41D160485E4988609D
:100F60005F4888600846006940F020000861084634
:100F7000006940F0400008614FF43020FFF727FE81
:100F80000446042C22D15448006941F6DF71084020
:100F9000514908610846006940F0100008611DB120
:100FA00000205049088002E0A5204E4908804FF4F7
:100FB0003020FFF70CFE0446052C10D0464800698F
:100FC00041F6EF7108404449086108E0052C06D05D
:100FD0004148006941F6DF7108403F4908612046F9
:100FE00030BDF0B505460E46174604243B483A4945
:100FF00088603B488860E002FFF7E9FD0446042C66
:1010000019D13548006940F010003349086147F0B4
:10101000F800304328433349891C0880E002FFF779
:10102000D6FD0446052C06D02B48006941F6EF7129
:101030000840294908612046F0BD2748C06980085A
:1010400070472548006A704700202349096811F05D
:10105000200F01D0012000E00020704729B11E4A76
:10106000126902431C4B1A6104E01B4A1269824355
:10107000194B1A61704701460020012908D1164A10
:10108000D26912F0010F01D0012008E0002006E033
:10109000114AD2680A4201D0012000E000207047C6
:1010A0000D49C860704704200B49C96811F0010F51
:1010B00001D001200EE00849C96811F0040F01D0E9
:1010C000022007E00449C96811F0100F01D0032085
:1010D00000E0042070470000002002402301674523
:1010E000AB89EFCD00F8FF1F10B50446CA48844213
:1010F00008D10121042000F034FB0021042000F07D
:1011000030FB46E0C548844208D10121082000F0A8
:1011100028FB0021082000F024FB3AE0C04884426C
:1011200008D10121102000F01CFB0021102000F04C
:1011300018FB2EE0BB48844208D10121202000F09A
:1011400010FB0021202000F00CFB22E0B648844276
:1011500008D10121402000F004FB0021402000F0D4
:1011600000FB16E0B148844208D10121802000F044
:10117000F8FA0021802000F0F4FA0AE0AC4884423A
:1011800007D10121801500F0ECFA0021A01500F034
:10119000E8FA10BD10B50121084600F0E2FA00217E
:1011A000012000F0DEFA10BD2DE9F04102460025D5
:1011B0000026002000230024002791F803C00CF033
:1011C0000F0591F803C01CF0100F03D091F802C076
:1011D0004CEA050591F800C0BCF1000F31D014684D
:1011E00000202BE04FF0010C0CFA00F3B1F800C026
:1011F0000CEA03069E4220D183004FF00F0C0CFA3C
:1012000003F7BC4305FA03FC4CEA040491F803C05D
:10121000BCF1280F06D14FF0010C0CFA00FCC2F80B
:1012200014C00AE091F803C0BCF1480F05D14FF09B
:10123000010C0CFA00FCC2F810C0401C0828D1D3E5
:101240001460B1F800C0BCF1FF0F34DD5468002019
:101250002EE000F1080C4FF0010808FA0CF3B1F889
:1012600000C00CEA03069E4221D183004FF00F0C10
:101270000CFA03F7BC4305FA03FC4CEA040491F8AA
:1012800003C0BCF1280F05D100F1080C08FA0CF8D6
:10129000C2F8148091F803C0BCF1480F07D100F1E7
:1012A000080C4FF0010808FA0CF8C2F81080401C36
:1012B0000828CED35460BDE8F0814FF6FF7101805D
:1012C000022181700421C17070470246002093689A
:1012D0000B4201D0012000E00020704701468868E1
:1012E00080B2704702460020D3680B4201D0012033
:1012F00000E0002070470146C86880B27047016175
:101300007047416170470AB1016100E04161704777
:10131000C16070474FF480320A438261816182610B
:1013200082698269704702460020424B18684FF676
:101330008073184040EA021008433E4B1860704723
:101340003D49C8617047F0B50A46002300240021DA
:10135000002500F00046B6F1004F02D1354EF1698C
:1013600001E0344E7168C0F3034583B200F44016C7
:10137000B6F5401F08D121F070612E4E766826F038
:1013800070662C4F7E6012E000F48016B6F5801F68
:1013900006D1032606FA05F4A14341F0706106E088
:1013A000460D360103FA06F6B14341F0706122B1F1
:1013B000460D360103FA06F6314300F00046B6F159
:1013C000004F02D11B4EF16101E01A4E7160F0BD79
:1013D00030B500228B071C0F0F2303FA04F2154BC4
:1013E00008338C1053F824309343124C08348D107A
:1013F00044F8253023468C1053F824308C07240FF2
:1014000000FA04F423430B4C08348D1044F82530C3
:1014100030BD0A490860704700080140000C0140D7
:10142000001001400014014000180140001C014060
:10143000002001400000014000002042DC0020426A
:10144000E448006840F00100E2490860084640684E
:10145000E1490840DF49486008460068DF49084024
:10146000DC4908600846006820F4802008600846CF
:10147000406820F4FE0048604FF41F0088600020A0
:10148000C8627047D349096821F48031D14A11609C
:101490001146096821F480211160B0F5803F03D026
:1014A000B0F5802F0ED106E0CA49096841F48031B9
:1014B000C84A116007E0C749096841F4A021C54A3C
:1014C000116000E000BF00BF704710B50146002268
:1014D000002300204A11012A02D1BE4C236806E0F5
:1014E000022A02D1BB4C236A01E0BA4C636A01F0C4
:1014F0001F02012494401C4201D0012000E0002082
:1015000010BD38B5002000900024002500BF312018
:10151000FFF7DBFF05460098401C00900098B0F5EF
:10152000A06F01D0002DF2D03120FFF7CEFF08B11F
:10153000012400E00024204638BD01460020A54AD1
:10154000106820F0F80040EAC10010607047A4491C
:1015500008607047024600209E4B586820F47410C3
:1015600042EA010318439B4B586070479C49086648
:10157000704702460020974BD86A9A4B184042EABF
:1015800001031843934BD862704701460020914AEB
:10159000506820F003000843506070478D48406851
:1015A00000F00C007047014600208A4A506820F085
:1015B000F00008435060704701460020854A50689B
:1015C00020F4E06008435060704701460020814AE3
:1015D000506820F4605040EAC1005060704729B163
:1015E0007C4A527A02437B4B5A7204E0794A527A1F
:1015F0008243784B5A7270477B49086070470146B6
:101600000020744A506820F44040084350607047FE
:101610000021764A11706F4A82F82010012802D00A
:10162000042808D103E00121704A117004E005216B
:101630006E4A117000E000BF00BF70476C4908603F
:1016400070476449096A0143624A116270476849F8
:1016500044390860704770B500210023002400223F
:1016600000255C4E766806F00C0121B1042905D0F6
:10167000082921D105E05F4E066020E05D4E06603E
:101680001DE0544E766806F47013524E766806F4E8
:101690008034022606EB93431CB9574E5E43066026
:1016A00009E04C4EF66A06F00F06751C514EB6FB6B
:1016B000F5F65E43066002E04E4E066000BF00BFD6
:1016C000444E766806F0F00109094C4E725C0668DB
:1016D000D64046603F4E766806F4E061090A474E00
:1016E000725C4668D64086603A4E766806F4605171
:1016F000C90A424E725C4668D640C660354E76686E
:1017000006F44041890B3E4E725CC668B6FBF2F6A9
:10171000066170BD29B12F4A526902432D4B5A61AF
:1017200004E02C4A526982432A4B5A61704729B11E
:10173000284A92690243274B9A6104E0254A92693C
:101740008243244B9A61704729B1224AD2690243ED
:10175000204BDA6104E01F4AD26982431D4BDA61F3
:10176000704729B11B4AD26802431A4BDA6004E081
:10177000184AD2688243174BDA60704729B1154A7C
:1017800012690243134B1A6104E0124A1269824340
:10179000104B1A617047164940390860704710496C
:1017A000C86470470B49C87170470A48406A40F0E6
:1017B000807008494862704701460020054A9268D7
:1017C0000A4201D0012000E00020704701498872E0
:1017D00070470000001002400000FFF8FFFFF6FE17
:1017E00000004242F0FFFEFFD800424220100240BB
:1017F0008004424200127A0000093D0014000020DB
:101800002400002010B50446FB48844209D1012180
:101810008803FFF7A6FF00214FF48040FFF7A1FFE8
:1018200032E0F648844209D101214804FFF7A6FFBF
:1018300000214FF40030FFF7A1FF25E0F04884427B
:1018400009D101218804FFF799FF00214FF480207E
:10185000FFF794FF18E0EB48844209D10121C80446
:10186000FFF78CFF00214FF40020FFF787FF0BE00C
:10187000E548844208D101210805FFF77FFF0021D8
:101880004FF48010FFF77AFF10BD2DE9F04786B0C6
:1018900005460E460024A24600BFA1460027B08997
:1018A00000B100BF2F462C8A4CF6FF700440F08830
:1018B00004432C82AC894EF6F3100440B088318981
:1018C0000843718908430443AC81AC8A4FF6FF405A
:1018D0000440B0890443AC8201A8FFF7BCFEC648AF
:1018E000874202D1DDF810A001E0DDF80CA0A88944
:1018F00010F4004F08D00AEBCA0000EB0A10316860
:101900004900B0FBF1F807E00AEBCA0000EB0A104F
:1019100031688900B0FBF1F86420B8FBF0F00401F5
:101920002009642101FB1089A88910F4004F08D018
:10193000322000EBC900B0FBF1F000F007000443D7
:1019400008E0322000EB09106421B0FBF1F000F058
:101950000F0004432C8106B0BDE8F0874FF4165108
:10196000016000218180C18001810C214181002121
:101970008181704710B502460020108A4FF2FF03A4
:1019800018400B884C8823438C882343CC882343FE
:101990001843108210BD0021018041808180C180E8
:1019A000704721B1828942F40052828104E0828929
:1019B0004DF6FF731A4082817047F0B5034600244C
:1019C000002600250020A1F510676A3F00D100BF66
:1019D0001846C1F3421401F01F06012707FA06F565
:1019E000012C01D10C3004E0022C01D1103000E0B8
:1019F00014301AB107682F43076002E00768AF434D
:101A00000760F0BD1AB1838A0B43838202E0838AA8
:101A10008B4383827047028A4FF6F0731A4002822A
:101A2000028A0A430282704782894FF2FF731A408A
:101A3000828182890A438281704721B1828942F082
:101A40000202828104E082894FF6FD731A4082818E
:101A50007047028A4FF6DF731A400282028A0A43F5
:101A60000282704721B1028A42F48042028204E07D
:101A7000028A4BF6FF731A4002827047C1F30802D4
:101A80008280704701468888C0F3080070478189CA
:101A900041F0010181817047028BD2B20283028B37
:101AA00042EA012202837047028B02F47F420283E2
:101AB000028B0A430283704721B1828A42F02002DE
:101AC000828204E0828A4FF6DF731A408282704776
:101AD00021B1828A42F01002828204E0828A4FF6AB
:101AE000EF731A408282704721B1828A42F0080265
:101AF000828204E0828A4FF6F7731A40828270472E
:101B000021B1828942F40042828103E08289C2F3DA
:101B10000E028281704721B1828A42F40062828281
:101B200004E0828A4FF2FF731A4082827047828AF1
:101B30004FF6FB731A408282828A0A438282704780
:101B400021B1828A42F00202828204E0828A4FF648
:101B5000FD731A408282704702460020B1F5007F73
:101B600000D100BF13880B4201D0012000E000200B
:101B7000704701F40072B2F5007F00D100BFCA4384
:101B80000280704770B50246002400230025002023
:101B9000A1F510666A3E00D100BFC1F3421501F005
:101BA0001F03012606FA03F3012D02D19689334063
:101BB00006E0022D02D1168A334001E0968A3340B6
:101BC0000C12012606FA04F41688344013B10CB145
:101BD000012000E0002070BD10B500220023A1F517
:101BE00010646A3C00D100BF0A1201249440A3B2E1
:101BF000DC43048010BD0000003801400044004078
:101C000000480040004C00400050004010B53048F3
:101C10000088142804DB00F03BFE00202C490880DB
:101C20002C4800883C2804DB00F0A7FE002029494E
:101C3000088010BD10B5FFF703FC0120FFF787FCFB
:101C40000020FFF7A2FC0020FFF71CFC0020FFF79C
:101C5000DFFC4FF480110020FFF77CFC0120FFF730
:101C600085FC00BF3920FFF730FC0028FAD0102097
:101C7000FEF770FF0020FEF759FF0020FFF793FCEE
:101C80000020FFF7A2FC4FF48060FFF795FC0220D4
:101C9000FFF77BFC01213D20FFF749FD012188036F
:101CA000FFF745FD10BD10B5FFF7C4FF00F09AFA2D
:101CB00000F05CFB00F0E7FB00F0CFF910BDFFF790
:101CC000F2FF04E0FFF7A2FF034800F072FCF9E71F
:101CD0005A0000205C0000209C010020704700BFDB
:101CE000FEE700BFFEE700BFFEE700BFFEE770476C
:101CF000704770471A48008820B119480088401E74
:101D00001749088017480088002804DD1548008816
:101D1000401E1449088014480088642804DA1248D8
:101D20000088401C1049088010480088B0F5967F54
:101D300004DA0E480088401C0C490880704710B532
:101D400040F225510A48FFF71DFF38B10848FFF758
:101D500099FEC4B22146074800F0ABFB10BD00005D
:101D60004E000020520000205A0000205C0000209D
:101D7000003801409C0100207CB50246DA4D35F860
:101D80001250ADF80050D84E02F1080536F8155043
:101D9000ADF8025002F1100536F81550ADF80450B8
:101DA00002F1180536F81550ADF80650BDF8005090
:101DB0002C462B4600210DE03DF811509D4201DBE1
:101DC0003DF811303DF81150A54201DC3DF81140BD
:101DD0004D1CA9B20429EFDBBDF80050BDF802602C
:101DE0003544BDF804603544BDF806603544ED1A4D
:101DF0002D1BC5F34F007CBD10B500240020FFF75C
:101E0000BBFF0446B94800888030A04206DBB748D3
:101E100000888038A04201DC012010BDB348408812
:101E20008030A04206DBB14840888038A04201DC07
:101E30000220F2E7AD4880888030A04206DBAB4844
:101E400080888038A04201DC0320E6E7A748C088EC
:101E50008030A04206DBA548C0888038A04201DC63
:101E60000420DAE7A14800898030A04206DB9F48C1
:101E700000898038A04201DC0520CEE79B484089DC
:101E80008030A04206DB994840898038A04201DCBE
:101E90000620C2E7954880898030A04206DB93483F
:101EA00080898038A04201DC0720B6E78F48C089CE
:101EB0008030A04206DB8D48C0898038A04201DC1A
:101EC0000820AAE78948008A8030A04206DB8748BC
:101ED000008A8038A04201DC09209EE78348408ABE
:101EE0008030A04206DB8148408A8038A04201DC75
:101EF0000A2092E7002090E710B501217C48FEF708
:101F000023FB01217A48FEF714FB7948FEF733FBE7
:101F100000BF7748FEF734FB0028FAD17448FEF77B
:101F200039FB00BF7248FEF73AFB0028FAD10121C5
:101F30006F48FEF73EFB10BD10B501214802FFF7C8
:101F4000F6FB00206B4908600120087148714FF4CE
:101F5000602088600020C8600A2008746448FEF78A
:101F6000BCFA0723012200216148FEF74EFB07233C
:101F7000022201215E48FEF748FB072303220221CB
:101F80005B48FEF742FB0723042203215848FEF773
:101F90003CFB0723052204215548FEF736FB0723A7
:101FA000062205215248FEF730FB07231A46062178
:101FB0004F48FEF72AFB0723082219464C48FEF734
:101FC00024FB0723092208214948FEF71EFB0723AB
:101FD0000A2209214648FEF718FB10BD10B5012161
:101FE0000846FFF797FB4448FEF778FC40484C3022
:101FF000424908603C484860002088602820C8604A
:102000000020086180204861400088618000C8612C
:102010002020086200024862002088623648FEF7ED
:10202000FFFC002202213448FEF731FD0121324835
:10203000FEF721FD10BD10B5EF20314908800020CA
:10204000C8703048FFF7B0F803202D490880002001
:10205000C8702D48FFF7A8F810BD10B5FFF7EBFFCB
:10206000FFF7BCFFFFF768FFFFF746FF38E03220BD
:1020700000F0E2F8FFF7C0FE24490880322000F0AB
:10208000DBF8FFF7B9FE21494880322000F0D4F890
:10209000FFF7B2FE1D498880322000F0CDF8FFF72F
:1020A000ABFE1A49C880322000F0C6F817480088F5
:1020B00016494988884213D11448008813498988F1
:1020C00088420DD1114800881049C988884207D13B
:1020D0000E48008820B10D4800780D49087000E0D6
:1020E000C5E700BF10BD00007C00002030000020CC
:1020F00000240140F800002008000240CC0000202D
:102100002800002000080140000C0140440000208D
:102110004C00002070B505460C461646FEF725FD1E
:102120003420FEF7BDFF2846FEF764FD05E0318848
:102130002846FEF762FEAD1C641E002CF7D1FEF7A8
:1021400020FD70BD10B510202249C87061200870B4
:1021500000204870012088701F482049086027200F
:1021600088731420C873002008741A4A02211C487E
:10217000FFF7D0FF322000F05FF8184A0A21184814
:102180000A30FFF7C7FF322000F056F810BD04E018
:1021900003881380921C801C491E0029F8D17047C7
:1021A00010B50C4A02210E48FFF7F1FF322000F073
:1021B00043F80A4A0A210A480A30FFF7E8FF3220AA
:1021C00000F03AF803480078612801D0FFF7BAFF21
:1021D00010BD00002C000020040302016800002054
:1021E000FF0F008430B51B4800684FF47A72B0FBD3
:1021F000F2F1B1F1807F00D31DE021F07F40401E5D
:102200004FF0E022506150170F22002807DA130721
:102210001D0E114B00F00F04241F1D5503E0130782
:102220001C0E0E4B1C5400BF00204FF0E0229061AA
:102230000720106100BF30BD094A108000BF084967
:1022400009880029FBD1704700BF0100A0F10100FF
:10225000FBD170470000002018ED00E000E400E032
:102260004E00002010B54FF480704D4908801020BA
:10227000C870032088704B48FEF796FF4FF47840F3
:10228000474908801020C870032088704648FEF730
:102290008BFF0220424908801020C87003208870FC
:1022A0004248FEF781FF4FF480503D4908801020DE
:1022B000C870032088703B48FEF776FF0420384939
:1022C00008801020C870032088703748FEF76CFF24
:1022D0004FF40070324908801020C87003208870C5
:1022E0003148FEF761FF4FF400712F48FFF709F8FE
:1022F00010BD10B50446E043C4B204F001024FF42F
:1023000000612948FEF7FFFF012000EA6402010393
:102310002548FEF7F8FF012000EAA4024103224805
:10232000FEF7F1FF012000EAE40281031E48FEF7F8
:10233000EAFF012000EA2412C1031B48FEF7E3FF75
:10234000012000EA641201021648FEF7DCFF1420A7
:10235000FFF77AFF04211448FEF7D1FF1420FFF79E
:1023600073FF04211048FEF7CCFF10BD10B5FFF736
:1023700079FF3F20FFF7BDFF0D488078012804D08A
:1023800002210A48FEF7BDFF03E002210748FEF7DD
:10239000B6FF0748407810B90A20FFF7AAFF10BD22
:1023A0002800002000080140000C014000140140FA
:1023B0002C00002010B54FF40070F7490880182059
:1023C000C87003208870F548FEF7EEFE4FF4806079
:1023D000F14908800420C870F048FEF7E5FE4FF48C
:1023E0000060ED4908801020C87003208870EB4819
:1023F000FEF7DAFE4FF40061E848FEF782FF10BDF9
:1024000010B54FF4E130E649086000208880C880AC
:10241000088188810C204881E248FFF736FA0122C2
:1024200040F22551DF48FFF7C8FA012240F224416B
:10243000DC48FFF7C2FA10BD10B501210846FFF7CE
:1024400069F9D948FEF74AFAD648001DD74908600D
:10245000D7484860102088601E20C86000200861AE
:102460008020486100208861C86108624FF44050B4
:10247000486200208862CC48FEF7D2FA0121CA489F
:10248000FEF7F9FA10BD10B5FFF794FF0121C5481A
:10249000FFF787FA4FF4E060FDF78AFF2520C54972
:1024A0000870002088700120C8700846FDF785FF7D
:1024B00010BD90F8392002B17047BF4A128822B986
:1024C00000220270427080F837200278082A6AD20F
:1024D000DFE802F004136969243D5261F52909D14E
:1024E0000122027080F83710002242706422B24B41
:1024F0001A8001E00022027058E0817090F83720C5
:102500000A4480F837208278AC4B1B789A4202D07C
:102510000022027001E00422027047E0017102799A
:10252000322A02DD0022027010E002793AB105225F
:10253000027090F837200A4480F8372006E006221F
:10254000027090F837200A4480F837202EE0437854
:10255000421DD15490F837200A4480F83720427841
:10256000521C42704278521D03799A4203D10622CE
:1025700002700022427019E000F1370041700278C9
:102580004378A0F137009A4202D00022027001E0A5
:10259000072202700AE0AA2902D1012280F839201C
:1025A0000022027002E00022027000BF00BF00BFE4
:1025B00082E72DE9F0418EB0044600250027002671
:1025C00094F83900012802D00EB0BDE8F08160799E
:1025D000132878D005DC48B1012875D0122874D1B1
:1025E00087E01A2872D01B28F9D125E1F5208DF853
:1025F000040000208DF80500FA208DF806009120D7
:102600008DF8070014208DF808006C4800788DF8CC
:10261000090001208DF80A008DF80B00FF208DF8CD
:102620000C006748808800128DF80D00644800791E
:102630008DF80E006248C08800128DF80F006048C7
:1026400080798DF810005E48008900128DF8110025
:102650005B48007A8DF812005948408900128DF8C5
:1026600013005748807A8DF814005548808900126D
:102670008DF815005248007B8DF816005048807B7D
:102680008DF817004E48C67B06EB860630128DF893
:102690001800F0B28DF819004A4840788DF81A00F9
:1026A0009DF81A004749897840EA4100C0B28DF888
:1026B0001A004348007C8DF81B004248C0788DF812
:1026C0001C00002509E0B5E014E0B6E0B3E001A885
:1026D000405D3844C7B2681CC5B2192DF7DB8DF8D0
:1026E0001D70AA208DF81E009DF804003049087066
:1026F000A4E0A3E094F80680B8F1010F09D0B8F186
:10270000020F76D0B8F10C0F0FD0B8F10D0F0BD12E
:1027100088E02C484178E079814205D0E079294968
:10272000487001202849087082E026484078012836
:1027300020D1E07910280DD12148C07B3F2803DB50
:102740003F201F49C87350E01D48C07B401C1C49F6
:10275000C8734AE0E079012847D11948C07B18B90D
:1027600000201749C87340E01548C07B401E14493B
:10277000C8733AE0E079012828D11148807B5628B7
:1027800003DB56200E4988732FE00D48807B401CE8
:102790000B49887329E02CE0280000200008014044
:1027A000D8010020003801404400024070010020A0
:1027B0000C01002056000020520000204C00002098
:1027C000680000202C00002055000020E07910282F
:1027D0000BD12A48807B18B900202849887304E06F
:1027E0002648807B401E25498873012024490870B3
:1027F0001EE0E07923498978884212D0E0792149A6
:10280000887008468078012804D102211E48FEF70E
:1028100076FD03E002211C48FEF773FD01201849F4
:10282000087005E0E079102801D1FFF78BFC00BFAC
:1028300000BF03E002E001E000E000BF00BF0020B5
:1028400084F8390000BFBFE610B50D48007898B194
:102850000C4A02210D48FFF75DFC3220FFF7ECFC2B
:10286000064A0A2109480A30FFF754FC3220FFF7D4
:10287000E3FC00200249087010BD00006800002041
:10288000550000202C00002000140140FF0F0084A0
:1028900070B5002584484078002855D10120FFF705
:1028A0006BFA0546052D04DA8048008880490880C7
:1028B00042E08048807B562803DD56207D4988739E
:1028C00006E07C48807B002802DC00207949887380
:1028D0007848807B784931F81040784800780128A2
:1028E00004D1724800887249088025E0201FA84260
:1028F0000DDD6E480088002805DD6C480088401E0C
:102900006B49088018E000206949088014E0201D08
:1029100085420DDD654800883F2805DA6348008858
:10292000401C6349088007E03F206149088003E0BC
:102930005E4800885E4908805D4800885B490880E1
:1029400000205E49087006E05A48C07B584908805C
:1029500001205A4908705648008859490988884218
:1029600006D053490878FFF7C4FC1420FFF764FC35
:102970004F4800885249088070BD70B5002400257A
:102980004948807801285AD1FFF7F6F9172810DA5C
:102990004C480068022806D944F001040320494944
:1029A000086001250AE047480068401C4549086066
:1029B00004E000204349086004F0FE040320FFF710
:1029C000DBF9172804DB0320FFF7D6F9592810DDBF
:1029D0003C484068022806D944F0020403203949E3
:1029E000486001250AE037484068401C3549486086
:1029F00004E000203349486004F0FD040220FFF7A2
:102A0000BBF94D2804DB0220FFF7B6F9682810DD7A
:102A10002C488068022806D944F004040320294980
:102A20008860012510E027488068401C254988609F
:102A30000AE000202349886004F0FB0404E0002041
:102A400020490860486088600420FFF795F9322823
:102A500004DB0420FFF790F9462810DD1948C06810
:102A6000022806D944F0080403201649C86001254D
:102A70000AE01448C068401C1249C86004E0002005
:102A80001049C86004F0F704012D04D169020E4812
:102A9000FEF735FC04E04FF400710B48FEF731FC03
:102AA0000448047470BD00002C0000206000002069
:102AB00064000020680000203E2B00085F0000201A
:102AC00062000020E8010020000C014070477047C0
:102AD0007047754600F028F8AE4605006946534633
:102AE00020F00700854618B020B5FDF775FBBDE85E
:102AF00020404FF000064FF000074FF000084FF065
:102B0000000B21F00701AC46ACE8C009ACE8C009F5
:102B1000ACE8C009ACE8C0098D4670470446AFF385
:102B200000802046FDF743FB00487047F801002075
:102B300001491820ABBEFEE7260002007047600185
:102B4000640168016B016E01720175017A017F01F8
:102B5000840189018F0196019C01A301AA01B101A1
:102B6000B801BF01C701CF01D701E001E901F101BF
:102B7000FA0102020C02150221022C0235023E0269
:102B8000490254025E02690273027E0288029302C5
:102B90009E02A902B402BE02C902D502E002EC0202
:102BA000F302FA0204030F031B03270332033D035E
:102BB000480353035E036A03750381038C03970381
:102BC000A303AE03B703BF03CD03DC03E603F103A6
:102BD000FD03080414041F04290434043E044904BA
:102BE00054045F0469047304000000000C2C000806
:102BF00000000020680000005C010008742C000840
:102C000068000020F00700007801000800366E011F
:102C1000000000000000000001020304060708098C
:102C20000000000001020304010203040607080972
:102C3000020406080000000000000000F700EF0199
:102C4000E702DF03D804D005C806C007B908B109F8
:102C50000000000000000000000000000000000074
:102C60000000000000000000000000000000000064
:042C70000000000060
:0400000508000121CD
:00000001FF
