:020000040000FA
:100000009803002019030000390300003B0300009F
:1000100000000000000000000000000000000000E0
:100020000000000000000000000000003D03000090
:1000300000000000000000003F030000410300003A
:100040004303000043030000430300004303000098
:100050004303000043030000430300004303000088
:10006000FB0C0000430300004303000043030000B7
:10007000430300003D06000043030000430300006B
:100080004303000043030000430300004303000058
:100090004303000043030000430300004303000048
:1000A0004303000043030000430300004303000038
:1000B00043030000810D00004303000043030000E0
:1000C00000F002F800F040F80CA030C808382418FE
:1000D0002D18A246671EAB4654465D46AC4201D180
:1000E00000F032F87E460F3E0FCCB6460126334272
:1000F00000D0FB1AA246AB4633431847EC1200006F
:100100000C130000103A02D378C878C1FAD852070D
:1001100001D330C830C101D504680C6070470000BD
:100120000023002400250026103A01D378C1FBD813
:10013000520700D330C100D50B6070471FB5C046D1
:10014000C0461FBD10B510BD01F0FFF81146FFF706
:10015000F5FF00F035F901F017F903B4FFF7F2FFEE
:1001600003BC01F01BF9000070B505460C461646AD
:1001700002E00FCC0FC5103E102EFAD2082E02D38B
:1001800003CC03C5083E042E07D301CC01C5361F9E
:1001900003E021782970641C6D1C761EF9D270BDB5
:1001A00070B500F068F84E4908604E480069450790
:1001B0006D0F022D03D0A8004B490C5801E04848B0
:1001C0000468484880690007000F461C31462046F5
:1001D00001F00BF8454908604549444800684A1059
:1001E000801801F002F84349086070BD10B5002383
:1001F0003B4C236000223B4B1B695907490F0029E8
:1002000011D13D4B374C23623C4804E00346401E6D
:10021000002B00DC04E0334BDB6804242342F5D0E0
:1002200000BF012212E0072910D1354B2D4C23626B
:10023000344804E00346401E002B00DC04E0294B58
:10024000DB6804242342F5D000BF0122002A11D02C
:1002500000BF59232C4C236016232360882323607E
:1002600000BF02231F4C236100BF0023264C2360E4
:1002700000BF00BF10BDFEB524A0006800900020A4
:1002800002901848046A0013044227D10120C004D8
:10029000044201D01E4800E01E48054601204004EB
:1002A000044201D0029519E0032080032040800B16
:1002B00069460F5CE005C00D801C01901F204002C4
:1002C0002040400A861C32467A431146AB08019A08
:1002D0005343184600F089FF800002900298FEBD4B
:1002E0000800002000020050C81300000000002099
:1002F00040420F000400002017420000E02E0000E2
:100300003956080066560000000100500102020440
:1003100000805101001BB7000D480E4901600E49D5
:1003200001600E4901600E4A0E4911600021016012
:100330000D4880470D480047FEE7FEE7FEE7FEE771
:10034000FEE7FEE70A480B49094A0B4B70470000DD
:100350000001005059000000160000008800000055
:1003600024000050A55A0000ED010000C10000006B
:1003700098010020980300209801002010B501206A
:1003800080F3108800BF00F05AF800F09EF800F0EB
:1003900084FD00F04AFE00F0C5F800F0D9FC00F042
:1003A00099FC00F07DFE0021012000F07EFE00217E
:1003B000012000F07AFE002080F3108800BF10BDFD
:1003C000FFF7DCFF02E0024800F08FF9FBE70000D6
:1003D000B700002010B5044621467D22D2005143CB
:1003E000434A126851430846424900F0FEFE424922
:1003F0004861002088610520086100BF3E4800690F
:10040000012109040842F9D010BD70B50446002549
:1004100000BF04E07D20C000FFF7DCFF6D1CA5429B
:10042000F8D370BD70B50446002500BF04E07D2000
:10043000C000FFF7EAFF6D1CA542F8D370BD00BFF6
:1004400059202E490860162008608820086000BFE7
:100450002B4800680C2108432949086018202949C5
:1004600004E00A46491E002A00DC04E0244AD2685F
:1004700002408242F5D100BF00BF1F202049086121
:1004800021484861084640690721090208431C4980
:100490004861002088611D480862084600684008DD
:1004A0004000086008464068042108431449486039
:1004B00017488860401C05210907C8600020C860F3
:1004C00000BF0E49086000BF7047124805210907A8
:1004D000486303200003C8630F48104908600120E7
:1004E000486000200E49486008607047704700006F
:1004F00004000020D408000000E000E000010050EB
:100500000002005090D003000F0000032EC205002F
:1005100005010210030C0000FDFF00000040005028
:10052000004200500A20F84948620320C86088153C
:1005300088600846406801210843F34948600D205F
:1005400001218140F14A116000BF704700B5382297
:10055000125C002A00D000BDED4A1268002A04D1C6
:10056000027042700023362213540278130000F008
:100570001CFF0705121C5F2F46575F00F52907D1A6
:1005800001220270002242706422E14B1A6001E0F5
:10059000002202704FE0FA2904D1022202703622B2
:1005A000115401E00022027045E0C170C278322A85
:1005B00002DD002202700AE0C278002A07D004227D
:1005C00002703622125C5218D3B23622135432E033
:1005D0004378021DD1543622125C5218D3B236220F
:1005E00013544278521C42704278C3789A4205DB19
:1005F0000522027000224270027982701BE03722CD
:1006000011543622135C3722125C934205D000232A
:10061000362213540022027001E0062202700AE022
:10062000AA2902D10123382213540022027002E0C9
:100630000022027000BF00BF00BF8CE730B5FF246E
:10064000B148C569012080F3108800BF000205424F
:100650000CD006E0AC480068C4B22146AD48FFF7B4
:1006600075FFA948C069C007C00FF3D1002080F30F
:10067000108800BF30BD10B50446A3480460642054
:10068000FFF7A8FE10BD70B505460E46002403E036
:10069000285DFFF7F0FF641CB442F9D1012070BD62
:1006A00010B59D48007800281ED0012000052221A9
:1006B0009A4AD1601146486001211161BFF3608FF1
:1006C00000BF00BF954909690029FBD100BF08227E
:1006D0009349500400F023FC40229249924800F0D4
:1006E0001EFC00208C49087010BD30B58DB0054649
:1006F00000243421684600F076FD3820405D012852
:1007000001D00DB030BD287981281AD00CDC032827
:100710007AD004DC01284DD002284AD1B3E0042865
:1007200073D01128F9D107E284286FD004DC822825
:100730006FD08328F1D1D1E0912869D09228ECD1F3
:1007400073E2F52168460170FA214170022181703F
:100750008121C170E878112803DD01206946087104
:1007600012E0002069460871002406E0281D611C83
:10077000405C6C490855601CC4B2E878401EA04239
:10078000F4DC012064490870012409E068464079DE
:100790006946095D4018C1B268464171601CC4B227
:1007A000052CF3DBAA206946887107216846FFF70C
:1007B0006AFF76E2F52168460170FA214170112145
:1007C00081700121C170002406E05648015D201DA2
:1007D0006A461154601CC4B2102CF6DB012409E0F7
:1007E0006846007D6946095D4018C1B268460175DA
:1007F000601CC4B2142CF3DBAA206946487516218C
:100800006846FFF740FF4CE2B4E017E1DCE000E0AF
:100810003FE1F52168460170FA21417002218170A3
:100820008221C170E878112803DD01206946087132
:1008300013E0002069460871002407E0281D611CB0
:10084000415C384810300155601CC4B2E878401E45
:10085000A042F3DC012030490870012409E0684619
:1008600040796946095D4018C1B268464171601C13
:10087000C4B2052CF3DBAA206946887107216846BB
:10088000FFF701FF0DE2F52168460170FA21417082
:10089000112181700221C170002407E0214810302D
:1008A000015D201D6A461154601CC4B2102CF5DB9A
:1008B000012409E06846007D6946095D4018C1B21F
:1008C00068460175601CC4B2142CF3DBAA2069468B
:1008D000487516216846FFF7D6FEE2E1F521684625
:1008E0000170FA214170022181708321C170E87882
:1008F000112803DD01206946087125E000206946C2
:100900000871002419E000000000154000E100E03B
:1009100048000020B70000204500002000C0005023
:100920003D0000207700002008001000281D611CF9
:10093000415CE4480155601CC4B2E878401EA04206
:10094000F4DC0120E0490870012409E068464079A0
:100950006946095D4018C1B268464171601CC4B265
:10096000052CF3DBAA206946887107216846FFF74A
:100970008AFE96E1F52168460170FA214170112145
:1009800081700321C170002406E0CE48015D201D66
:100990006A461154601CC4B2102CF6DB012409E035
:1009A0006846007D6946095D4018C1B26846017518
:1009B000601CC4B2142CF3DBAA20694648751621CA
:1009C0006846FFF760FE6CE1F52168460170FA2188
:1009D0004170022181708421C170E878112803DD03
:1009E00001206946087113E000206946087100245F
:1009F00007E0281D611C415CB24810300155601CA5
:100A0000C4B2E878401EA042F3DC0120AE49087071
:100A1000012409E0684640796946095D4018C1B281
:100A200068464171601CC4B2052CF3DBAA206946FC
:100A3000887107216846FFF726FE32E1F5216846F6
:100A40000170FA214170112181700421C1700024CC
:100A500007E09C481030015D201D6A461154601C5F
:100A6000C4B20C2CF5DB012409E06846007D694620
:100A7000095D4018C1B268460175601CC4B2142CEF
:100A8000F3DBAA206946487516216846FFF7FBFD8F
:100A900007E16879030000F088FC082205090E12BE
:100AA000161A1E22A8798949487018E0A87940B220
:100AB0008649887013E0A8798449C8700FE0A87946
:100AC000824908710BE0A8798049487107E0A8794C
:100AD0007E49887103E0A8797C49C87100BF00BFD6
:100AE000F52168460170FA2141700221817091213F
:100AF000C170E878032803D001206946087105E039
:100B0000012071490870002069460871012409E03C
:100B1000684640796946095D4018C1B2684641712E
:100B2000601CC4B2052CF3DBAA206946887107213A
:100B30006846FFF7A8FDB4E0F52168460170FA2188
:100B40004170182181701121C17061480178684697
:100B500001715F484178684641715D488178684617
:100B600081715B48C1786846C1715948017968460E
:100B70000172574841796846417255488179684603
:100B800081725348C1796846C1725148017A6846FA
:100B900001734F48417A684641734D48817A6846EF
:100BA00081734B48C17A6846C173484841796846A9
:100BB000017446488179684641744448C179684661
:100BC0008174424841786846C1744148017B684657
:100BD00001753E488178684641753C48C178684651
:100BE00081753A4801796846C1753948417B684644
:100BF00001763748817B6846417601218176012460
:100C000009E06846C07E6946095D4018C1B2684681
:100C1000C176601CC4B21B2CF3DBAA20694608779E
:100C20001D216846FFF72FFD3BE068792749487092
:100C3000A87940B28870E879C870287A0871687A13
:100C40004871A87A8871E87AC871F5216846017000
:100C5000FA214170022181709221C170E878082840
:100C600003D001206946087105E00020694608713B
:100C7000012015490870012409E068464079694659
:100C8000095D4018C1B268464171601CC4B2052CB0
:100C9000F3DBAA206946887107216846FFF7F3FC59
:100CA00000BF00BF3421684600F09DFA3921284674
:100CB00000F097FAFFF7F4FC00213820415500BFFF
:100CC0001FE5000097000020450000203D000020A7
:100CD000680000201848810308600920C0024860AD
:100CE000082001218140154A116000BF14480068A6
:100CF00091050843124908607047124800680028AF
:100D000004D010480068401E0E4908600E48006874
:100D1000142804D20C480068401C0B4908600B489A
:100D20000068142804D209480068401C074908607C
:100D300001200349886070470400012800E100E0B9
:100D400000000140480000204C000020500000201E
:100D50000F2044490862032048620846406B012185
:100D600008434049486300BF3E48406B02210842A7
:100D7000FAD01D20012181403B4A116000BF70471D
:100D80001D2001218140384A8032116000BF354862
:100D9000006BC007C00F28D0324800680121490409
:100DA00008420CD02F48006880B230490978890089
:100DB0002F4A50502D480078401C2C490870294873
:100DC00040680121490408420CD02648406880B29E
:100DD000284909788900284A505026480078401C44
:100DE0002449087001201F4908632048007803281F
:100DF00008DD20480078032804DD00201B49087026
:100E00001C49087019480078C82802DD00201749DD
:100E1000087018480078C82802DD002015490870BD
:100E2000704770B501460023002400220DE09500B4
:100E30004D599D4201D395004B5995004D59A542FE
:100E400001D895004C59551CEAB2042AEFDB4E68D4
:100E50000D68AD198E68AD19CE68AD19ED1A2D1B50
:100E6000680870BD00000E4000E100E05400002062
:100E7000F0000020550000200001002022217D4AC2
:100E8000D1601146486001211161BFF3608F00BF3E
:100E9000784909690029FBD1704710B500F0E1F8E5
:100EA00075484068042108437349486071480068E8
:100EB000392108436F49086000BF00206F4908606E
:100EC00000BF10BDF8B504460E4615460020009040
:100ED000002D00D1F8BD00F0C4F827461BE02046E5
:100EE0000021644AD16011464860002191600121CF
:100EF0001161BFF3608F00BF00BF5E49096900291F
:100F0000FBD15C498968009100983060241D361D32
:100F10001037281FC5B2002DE1DC00BFDAE7F8B5B5
:100F200005460C4616460027002E01D10020F8BDCC
:100F300000F097F82CE02078617809024018A17839
:100F400009044018E1780906401807462946384642
:100F50002122484BDA601A465160906001221A61E2
:100F6000BFF3608F00BF00BF424A1269002AFBD165
:100F700000BF241D2D1D301FC6B2002E00D108E079
:100F8000680A0121C902884202D92846FFF776FF84
:100F9000D1E700BF0120CAE7374840680421084371
:100FA00035494860334800684008400031490860CE
:100FB00008460068202188432E490860704710B514
:100FC000002413E02E48005D2E4908552E48015D8F
:100FD0002C48103001552D48015D2A48303001550C
:100FE0002B48015D274820300155641C102CE9DB9B
:100FF0006120284908700320487000208870012073
:10100000C8700871002048718871C87101200005FE
:10101000FFF734FF08221F495004FFF780FF4022EA
:1010200018491D48FFF77BFF10BD10B508221B496A
:101030005004FFF747FF08221849164800F074F8DB
:10104000402216491448FFF73DFF402213490D483E
:1010500000F06AF80F480078612801D0FFF7AFFF71
:1010600010BD5920054908601620086088200860D6
:101070007047000000C00050000200500001005006
:101080000D000020770000201D00002058000020E7
:101090002D0000203D00002008001000100100205D
:1010A00000202049C86208637047F8B504460D4621
:1010B000A806070E002619E000201A4948630A20F6
:1010C000FFF788F98020074203D001201549886383
:1010D00002E00020134988637806070E01201149B9
:1010E00048630A20FFF776F9701CC6B2062EE3DBD0
:1010F00000200C4948630A20FFF76CF9012C03D14A
:1011000001200849C86204E0022C02D101200549EF
:1011100008630A20FFF75EF900200249C8620863ED
:10112000F8BD000040420050F8B5042A2CD38307D4
:1011300012D00B78491C0370401C521E83070BD041
:101140000B78491C0370401C521E830704D00B7897
:10115000491C0370401C521E8B079B0F05D0C91AF7
:10116000DF002023DE1B08C90AE0FEF7FDFFF8BD03
:101170001D4608C9FD401C46B4402C4310C0121F38
:10118000042AF5D2F308C91A521EF0D40B78491C70
:101190000370401C521EEAD40B78491C0370401C9B
:1011A000521EE4D409780170F8BD01E004C0091FA3
:1011B0000429FBD28B0701D50280801CC90700D00F
:1011C0000270704700290BD0C30702D00270401C88
:1011D000491E022904D3830702D50280801C891E80
:1011E000E3E70022EEE70022DFE7002203098B425B
:1011F0002CD3030A8B4211D300239C464EE00346B6
:101200000B433CD4002243088B4231D303098B4269
:101210001CD3030A8B4201D394463FE0C3098B429F
:1012200001D3CB01C01A524183098B4201D38B01F8
:10123000C01A524143098B4201D34B01C01A52419B
:1012400003098B4201D30B01C01A5241C3088B42E0
:1012500001D3CB00C01A524183088B4201D38B00CB
:10126000C01A524143088B4201D34B00C01A52416D
:10127000411A00D201465241104670475DE0CA0F44
:1012800000D04942031000D34042534000229C4604
:1012900003098B422DD3030A8B4212D3FC2289010E
:1012A00012BA030A8B420CD3890192118B4208D3E4
:1012B000890192118B4204D389013AD0921100E046
:1012C0008909C3098B4201D3CB01C01A524183095A
:1012D0008B4201D38B01C01A524143098B4201D387
:1012E0004B01C01A524103098B4201D30B01C01AB2
:1012F0005241C3088B4201D3CB00C01A524183082C
:101300008B4201D38B00C01A5241D9D243088B4281
:1013100001D34B00C01A5241411A00D20146634624
:1013200052415B10104601D34042002B00D5494288
:10133000704763465B1000D3404201B50020C046B1
:10134000C04602BD704770477047754600F022F8EE
:10135000AE46050069465346C008C000854618B031
:1013600020B5FEF7EFFF60BC00274908B64600260F
:10137000C0C5C0C5C0C5C0C5C0C5C0C5C0C5C0C545
:10138000403D49008D4670470446C046C046204651
:10139000FEF7E3FE0048704738010020014918209D
:1013A000ABBEFEE726000200704730B47446641EF0
:1013B0002578641CAB4204D3635D5B00E31830BC4A
:1013C00018471D46F8E70000001BB70000000000AA
:1013D00080F0FA021027000000000000000000006A
:1013E00000000000008051010814000000000020EF
:1013F00058000000040100006014000058000020A4
:10140000400300002001000080F0FA0232000000DA
:1014100080F0FA02005457332D313620202020204E
:1014200020202020205457332D31360000000000AA
:101430000000000000444F4E59414E202020202043
:1014400020202020200000000000000000000000FC
:10145000000000000000000000000000000000008C
:04000005000000C136
:00000001FF
