:020000040000FA
:10000000C004002019030000390300003B03000076
:1000100000000000000000000000000000000000E0
:100020000000000000000000000000003D03000090
:1000300000000000000000003F030000410300003A
:100040004303000043030000430300004303000098
:100050004303000043030000430300004303000088
:10006000EB110000430300004303000043030000C2
:10007000430300008D06000043030000430300001B
:100080004303000043030000430300004303000058
:100090004303000043030000430300004303000048
:1000A0004303000043030000430300004303000038
:1000B00043030000DF12000043030000430300007D
:1000C00000F002F800F040F80CA030C808382418FE
:1000D0002D18A246671EAB4654465D46AC4201D180
:1000E00000F032F87E460F3E0FCCB6460126334272
:1000F00000D0FB1AA246AB46334318475C220000EF
:100100007C220000103A02D378C878C1FAD852078E
:1001100001D330C830C101D504680C6070470000BD
:100120000023002400250026103A01D378C1FBD813
:10013000520700D330C100D50B6070471FB5C046D1
:10014000C0461FBD10B510BD02F05EF81146FFF7A6
:10015000F5FF00F04AF902F076F803B4FFF7F2FF7A
:1001600003BC02F07BF8000070B505460C4616464D
:1001700002E00FCC0FC5103E102EFAD2082E02D38B
:1001800003CC03C5083E042E07D301CC01C5361F9E
:1001900003E021782970641C6D1C761EF9D270BDB5
:1001A00070B500F068F84E4908604E480069450790
:1001B0006D0F022D03D0A8004B490C5801E04848B0
:1001C0000468484880690007000F461C31462046F5
:1001D00001F0DDFB454908604549444800684A1084
:1001E000801801F0D4FB4349086070BD10B50023AE
:1001F0003B4C236000223B4B1B695907490F0029E8
:1002000011D13D4B374C23623C4804E00346401E6D
:10021000002B00DC04E0334BDB6804242342F5D0E0
:1002200000BF012212E0072910D1354B2D4C23626B
:10023000344804E00346401E002B00DC04E0294B58
:10024000DB6804242342F5D000BF0122002A11D02C
:1002500000BF59232C4C236016232360882323607E
:1002600000BF02231F4C236100BF0023264C2360E4
:1002700000BF00BF10BDFEB524A0006800900020A4
:1002800002901848046A0013044227D10120C004D8
:10029000044201D01E4800E01E48054601204004EB
:1002A000044201D0029519E0032080032040800B16
:1002B00069460F5CE005C00D801C01901F204002C4
:1002C0002040400A861C32467A431146AB08019A08
:1002D0005343184601F05BFB800002900298FEBD7C
:1002E0000800002000020050382300000000002019
:1002F00040420F000400002017420000E02E0000E2
:100300003956080066560000000100500102020440
:1003100000805101001BB7000D480E4901600E49D5
:1003200001600E4901600E4A0E4911600021016012
:100330000D4880470D480047FEE7FEE7FEE7FEE771
:10034000FEE7FEE70A480B49094A0B4B70470000DD
:100350000001005059000000160000008800000055
:1003600024000050A55A0000ED010000C10000006B
:10037000C0020020C0040020C002002010B50120EF
:1003800080F3108800BF00F086F800F0CAF801F092
:1003900066F801F02CF900F0EDF800F067FF00F0CE
:1003A00011FF01F05BF9002080F3108800BF10BD41
:1003B00010B518480068052804D3002015490860C6
:1003C00000F07DFE14480068142804D30020124970
:1003D000086000F0A7FC114800680A2804D3002038
:1003E0000E49086000F018FD10BDFFF7C7FF0C486C
:1003F000006A0121C902084309490862002009492D
:100400008860C86004E0FFF7D3FF074800F095F963
:10041000F9E70000A80000209C000020A4000020B4
:1004200000000E40004200501801002010B50446A4
:1004300021467D22D2005143424A12685143084668
:10044000414901F0A4FA4149486100208861052032
:10045000086100BF3D480069012109040842F9D044
:1004600010BD70B50446002500BF04E07D20C0002B
:10047000FFF7DCFF6D1CA542F8D370BD70B50446D4
:10048000002500BF04E07D20C000FFF7EAFF6D1CDF
:10049000A542F8D370BD00BF59202D490860162031
:1004A00008608820086000BF2A4800680C210843C3
:1004B000284908601820284904E00A46491E002AF5
:1004C00000DC04E0234AD26802408242F5D100BF3A
:1004D00000BF1F201F490861204848610846406945
:1004E0000721090208431B494861002088611C4814
:1004F00008620846006840084000086008464068F6
:10050000042108431349486016488860401C0521AF
:100510000907C8600020C86000BF0D49086000BF1F
:100520007047032005210907C863FF2048630E4870
:100530000E4908600320486000200D4948600860AB
:100540007047000004000020D408000000E000E034
:10055000000100500002005090D003000F00000383
:100560002EC2050005010110F5FF000000400050FB
:10057000004200500A20F84948620320C8608815EC
:1005800088600846406801210843F34948600D200F
:1005900001218140F14A116000BF704700B5382247
:1005A000125C002A00D000BDED4A1268002A04D176
:1005B000027042700023362213540278130001F0B7
:1005C00054FE0705121C5F2F46575F00F52907D11F
:1005D00001220270002242706422E14B1A6001E0A5
:1005E000002202704FE0FA2904D102220270362262
:1005F000115401E00022027045E0C170C278322A35
:1006000002DD002202700AE0C278002A07D004222C
:1006100002703622125C5218D3B23622135432E0E2
:100620004378021DD1543622125C5218D3B23622BE
:1006300013544278521C42704278C3789A4205DBC8
:100640000522027000224270027982701BE037227C
:1006500011543622135C3722125C934205D00023DA
:10066000362213540022027001E0062202700AE0D2
:10067000AA2902D10123382213540022027002E079
:100680000022027000BF00BF00BF8CE730B5FF241E
:10069000B148C569012080F3108800BF00020542FF
:1006A0000CD006E0AC480068C4B22146AD48FFF764
:1006B00075FFA948C069C007C00FF3D1002080F3BF
:1006C000108800BF30BD10B50446A3480460642004
:1006D000FFF7ACFE10BD70B505460E46002403E0E2
:1006E000285DFFF7F0FF641CB442F9D1012070BD12
:1006F00010B59D48007800281ED001200005222159
:100700009A4AD1601146486001211161BFF3608FA0
:1007100000BF00BF954909690029FBD100BF08222D
:100720009349500400F0DDFE40229249924800F0C7
:10073000D8FE00208C49087010BD30B58DB005463C
:1007400000243421684601F020F93820405D01285A
:1007500001D00DB030BD287981281AD00CDC0328D7
:100760007AD004DC01284DD002284AD1B3E0042815
:1007700073D01128F9D107E284286FD004DC8228D5
:100780006FD08328F1D1D1E0912869D09228ECD1A3
:1007900073E2F52168460170FA21417002218170EF
:1007A0008121C170E878112803DD012069460871B4
:1007B00012E0002069460871002406E0281D611C33
:1007C000405C6C490855601CC4B2E878401EA042E9
:1007D000F4DC012064490870012409E0684640798E
:1007E0006946095D4018C1B268464171601CC4B2D7
:1007F000052CF3DBAA206946887107216846FFF7BC
:100800006AFF76E2F52168460170FA2141701121F4
:1008100081700121C170002406E05648015D201D51
:100820006A461154601CC4B2102CF6DB012409E0A6
:100830006846007D6946095D4018C1B26846017589
:10084000601CC4B2142CF3DBAA206946487516213B
:100850006846FFF740FF4CE2B4E017E1DCE000E05F
:100860003FE1F52168460170FA2141700221817053
:100870008221C170E878112803DD012069460871E2
:1008800013E0002069460871002407E0281D611C60
:10089000415C384810300155601CC4B2E878401EF5
:1008A000A042F3DC012030490870012409E06846C9
:1008B00040796946095D4018C1B268464171601CC3
:1008C000C4B2052CF3DBAA2069468871072168466B
:1008D000FFF701FF0DE2F52168460170FA21417032
:1008E000112181700221C170002407E021481030DD
:1008F000015D201D6A461154601CC4B2102CF5DB4A
:10090000012409E06846007D6946095D4018C1B2CE
:1009100068460175601CC4B2142CF3DBAA2069463A
:10092000487516216846FFF7D6FEE2E1F5216846D4
:100930000170FA214170022181708321C170E87831
:10094000112803DD01206946087125E00020694671
:100950000871002419E000000000154000E100E0EB
:1009600098000020180100204500002000C0005021
:100970003D000020D800002008001000281D611C48
:10098000415CE4480155601CC4B2E878401EA042B6
:10099000F4DC0120E0490870012409E06846407950
:1009A0006946095D4018C1B268464171601CC4B215
:1009B000052CF3DBAA206946887107216846FFF7FA
:1009C0008AFE96E1F52168460170FA2141701121F5
:1009D00081700321C170002406E0CE48015D201D16
:1009E0006A461154601CC4B2102CF6DB012409E0E5
:1009F0006846007D6946095D4018C1B268460175C8
:100A0000601CC4B2142CF3DBAA2069464875162179
:100A10006846FFF760FE6CE1F52168460170FA2137
:100A20004170022181708421C170E878112803DDB2
:100A300001206946087113E000206946087100240E
:100A400007E0281D611C415CB24810300155601C54
:100A5000C4B2E878401EA042F3DC0120AE49087021
:100A6000012409E0684640796946095D4018C1B231
:100A700068464171601CC4B2052CF3DBAA206946AC
:100A8000887107216846FFF726FE32E1F5216846A6
:100A90000170FA214170112181700421C17000247C
:100AA00007E09C481030015D201D6A461154601C0F
:100AB000C4B20C2CF5DB012409E06846007D6946D0
:100AC000095D4018C1B268460175601CC4B2142C9F
:100AD000F3DBAA206946487516216846FFF7FBFD3F
:100AE00007E16879030001F0C0FB082205090E1236
:100AF000161A1E22A8798949487018E0A87940B2D0
:100B00008649887013E0A8798449C8700FE0A879F5
:100B1000824908710BE0A8798049487107E0A879FB
:100B20007E49887103E0A8797C49C87100BF00BF85
:100B3000F52168460170FA214170022181709121EE
:100B4000C170E878032803D001206946087105E0E8
:100B5000012071490870002069460871012409E0EC
:100B6000684640796946095D4018C1B268464171DE
:100B7000601CC4B2052CF3DBAA20694688710721EA
:100B80006846FFF7A8FDB4E0F52168460170FA2138
:100B90004170182181701121C17061480178684647
:100BA00001715F488178684641715D480179684606
:100BB00081715B4881796846C1715948017A6846FC
:100BC00001725748817A684641725548017B6846F0
:100BD00081725348817B6846C1725148017C6846E6
:100BE00001734F48817C684641734D48017D6846DA
:100BF00081734B48817D6846C17348484179684696
:100C0000017446488179684641744448C179684610
:100C10008174424841786846C1744148017E684603
:100C200001753E488178684641753C48C178684600
:100C300081753A4801796846C1753948417E6846F0
:100C400001763748817E684641760121817601240C
:100C500009E06846C07E6946095D4018C1B2684631
:100C6000C176601CC4B21B2CF3DBAA20694608774E
:100C70001D216846FFF72FFD3BE068792749487042
:100C8000A87940B28870E879C870287A0871687AC3
:100C90004871A87A8871E87AC871F52168460170B0
:100CA000FA214170022181709221C170E8780828F0
:100CB00003D001206946087105E0002069460871EB
:100CC000012015490870012409E068464079694609
:100CD000095D4018C1B268464171601CC4B2052C60
:100CE000F3DBAA206946887107216846FFF7F3FC09
:100CF00000BF00BF3421684600F047FE3921284676
:100D000000F041FEFFF7F4FC00213820415500BF00
:100D10001FE50000F8000020450000203D000020F5
:100D2000BC0000201D2001218140F84A116000BF55
:100D3000704770B502460C460023002500217C2A2E
:100D400001DA3F250FE000210AE08800F04E305A1A
:100D5000904203DC88008019857803E0481CC1B20A
:100D60000A29F2DB00BF281B43B2002B01DA002561
:100D700004E03F2B01DB3F2500E0DDB268B270BD2F
:100D800010B500F02EFDE3480821415E7D2901DB0E
:100D90000A243FE0DF480821415E732901DB092472
:100DA00038E0DC480821415E692901DB082431E094
:100DB000D8480821415E5F2901DB07242AE0D54895
:100DC0000821415E552901DB062423E0D148082192
:100DD000415E4B2901DB05241CE0CE480821415E21
:100DE000412901DB042415E0CA480821415E372966
:100DF00001DB03240EE0C7480821415E2D2901DBF9
:100E0000022407E0C3480821415E232901DB0124B5
:100E100000E00024204610BD70B500240025BE4A25
:100E2000527951B2BB4A5089FFF783FFC4B2FFF732
:100E3000A7FF0546AC4202DB601BC4B200E0002401
:100E4000B6480078A04205D02146012000F00BFCF6
:100E5000B2480470B04A927951B2AE4A9089FFF715
:100E600068FFC4B2FFF78CFF0546AC4202DB601B93
:100E7000C4B200E00024AA480078A04205D0214670
:100E8000022000F0F0FBA648047070BD0021002095
:100E9000A44A1268FF2337339A4204D3A14A126846
:100EA000A14B9A4211D9A14A1268022A06D90122FD
:100EB000104303229D4B1A60012106E09B4A1268F1
:100EC000521C9A4B1A6040084000964AD268FF2391
:100ED00037339A4204D3934AD268934B9A4213D938
:100EE000924A1268022A06D90222104303228F4B2B
:100EF0001A60012108E08D4A1268521C8B4B1A605F
:100F0000022302469A431046864A92687C2A04D3FA
:100F1000844A9268864B9A4213D9844A1268022AFC
:100F200006D9042210430322804B1A60012108E0F5
:100F30007E4A1268521C7D4B1A60042302469A4373
:100F40001046784A526A7C2A04D3764A526A784B11
:100F50009A4213D9754A1268022A06D90822104308
:100F60000322724B1A60012108E0704A1268521C79
:100F70006E4B1A60082302469A431046694A52682B
:100F8000FF2375339A4204D3664A5268694B9A42EA
:100F900013D9664A1268022A06D910221043032286
:100FA000624B1A60012108E0604A1268521C5F4BD4
:100FB0001A60102302469A4310465A4A126AFF23C7
:100FC00075339A4204D3574A126A5A4B9A4213D93C
:100FD000564A1268022A06D9202210430322534B94
:100FE0001A60012108E0514A1268521C4F4B1A60E6
:100FF000202302469A4310464A4AD269FF233733D8
:101000009A4204D3474AD269474B9A4213D9474A76
:101010001268022A06D9402210430322434B1A6069
:10102000012108E0414A1268521C404B1A604023DB
:1010300002469A431046374A907670473648C07841
:10104000012804D0022807D0032810D109E000208D
:1010500039498860C8600AE001203749C860886063
:1010600005E001203449C8600020886000BF00BF4F
:1010700029480079012804D0022809D0032816D174
:101080000DE000202C49403108602B4908610EE03A
:1010900001202949403108602749086107E0012003
:1010A00025494031086000202349086100BF00BF86
:1010B000002021494039486001200860704700B590
:1010C0001D48403080681C49896B490040181A4906
:1010D0004031496889004018174940390969C900F9
:1010E00040180C4908701448403840694876FFF7AA
:1010F000A5FF00BD0848407801281FD0022823D052
:10110000032827D0042853D13BE0000000E100E091
:1011100046000020BC0000203D000020960000207A
:101120009700002010020020B209000054010020A6
:101130001F0C0000CA0600004042005000201D495C
:1011400048600120086033E001201A49486000200F
:1011500008602DE018484189184A02201056801D69
:101160008000174A105E814205DD00201149486069
:101170000120086004E001200E494860002008605A
:1011800016E00D4881890D4A02201056801D80000E
:101190000B4A105E814205DD0120064948600020AF
:1011A000086004E00020034948600120086000BF97
:1011B00000BF704700420050BC0000203D000020EE
:1011C0006E0000202148810308600920C0024860A9
:1011D0000820012181401E4A116000BF1D4800689F
:1011E000910508431B49086070471B4800680028A8
:1011F00004D019480068401E174908601748006865
:10120000142804D215480068401C1449086014488A
:1012100000680A2804D212480068401C104908607F
:1012200010480068052804D20E480068401C0D498B
:1012300008600D480068142804D20B480068401C60
:1012400009490860012003498860704704000128AB
:1012500000E100E000000140980000209C00002018
:10126000A4000020A8000020A00000200F206D494D
:101270000862FF2048620846406B01210843694923
:10128000486300BF6748406B02210842FAD01D2026
:1012900001218140644A116000BF704770B501466A
:1012A0000B680C6800220DE095004D599D4201D35A
:1012B00095004B5995004D59A54201D895004C59C0
:1012C000551CEAB2042AEFDB4E680D68AD198E6832
:1012D000AD19CE68AD19ED1A2D1B680870BD10B59B
:1012E00000241D20012181404F4A8032116000BF3F
:1012F0004C48006BC007C00F5ED000BF57E0012C08
:101300001AD14A48C068002816D1A00045494018A3
:101310000068610408420ED0A000424940180068ED
:1013200081B24348007A8200424881504048007AA6
:10133000401C3F49087238E0022C1BD13B488068B2
:10134000002817D1A000374940180068210408423E
:101350000FD0A00033494018006881B23448407A69
:1013600082003448103081503148407A401C304966
:1013700048721AE0A0002B49401800680121490476
:10138000084211D0A00027494018006880B221010E
:10139000284A803A8918264A125D920088502448CB
:1013A000005D401C2249085500BF601CC4B2082CD7
:1013B000A5DB01201B490863002411E01C48005DE7
:1013C00003280BDD21011B4A803A8818FFF766FFCE
:1013D000A100194A5050002015490855601CC4B29C
:1013E0000A2CEBDB14480088144948811248808895
:1013F000488211480089C8810F48808988810E4839
:10140000008AC8800C48808A88800B48008B4880FE
:101410000948808BC8820848008C88820648808CE6
:10142000088210BD00000E4000E100E000420050C4
:1014300064010020F001002010020020BC00002008
:1014400022217B4AD1601146486001211161BFF31E
:10145000608F00BF764909690029FBD1704710B53C
:1014600000F0DDF873484068042108437149486082
:101470006F480068392108436D49086000BF0020AB
:101480006D49086000BF10BDF8B504460E4615460C
:1014900000200090002D00D1F8BD00F0C0F82746D4
:1014A0001BE020460021624AD160114648600021BD
:1014B000916001211161BFF3608F00BF00BF5C49E3
:1014C00009690029FBD15A49896800910098306068
:1014D000241D361D1037281FC5B2002DE1DC00BFCA
:1014E000DAE7F8B505460C4616460027002E01D16E
:1014F0000020F8BD00F093F82CE020786178090214
:101500004018A17809044018E178090640180746F8
:10151000294638462122464BDA601A4651609060CF
:1015200001221A61BFF3608F00BF00BF404A1269F9
:10153000002AFBD100BF241D2D1D301FC6B2002E76
:1015400000D108E0680A0121C902884202D9284670
:10155000FFF776FFD1E700BF0120CAE735484068B2
:10156000042108433349486031480068400840007E
:101570002F49086008460068202188432C490860EC
:10158000704710B5002413E02C48005D2C49085525
:101590002C48015D2A48103001552B48015D284830
:1015A000303001552948015D254820300155641C23
:1015B000102CE9DB612026490870032048700020C8
:1015C00088700120C8700871002048718871C87146
:1015D00001200005FFF734FF08221D495004FFF7E2
:1015E00080FF402216491B48FFF77BFF10BD10B556
:1015F000082219495004FFF747FF082216491448EA
:1016000000F064F9402214491248FFF73DFF4022E0
:1016100011490B4800F05AF9FFF7B3FF10BD5920EC
:10162000054908601620086088200860704700009F
:1016300000C0005000020050000100500D000020CA
:10164000D80000201D000020AC0000202D0000204C
:101650003D00002008001000380200200020214931
:10166000C86208637047F8B504460D46A806070E21
:1016700000261BE000201B4948630A20FEF7D6FE27
:101680008020074204D0012016494031C86003E0A1
:10169000002014494031C8607806070E0120114926
:1016A00048630A20FEF7C2FE701CC6B2062EE1DBBC
:1016B00000200C4948630A20FEF7B8FE012C03D134
:1016C00001200849C86204E0022C02D1012005492A
:1016D00008630A20FEF7AAFE00200249C8620863D8
:1016E000F8BD00004042005070B50125002426E0FE
:1016F00016E0012070498861FEF798FE00206E49CF
:101700008861FF20F530FEF791FE01206A4988616B
:101710003220FEF78BFE68488069C5B2601C04B2B7
:10172000002D01D00A2CE4DBFF209130FEF77EFE75
:1017300061488069002801D0002500E00125002DC6
:1017400001D00A2CD4DB01205B49886170BD70B5E3
:101750000446002515E00120574988610220FEF764
:1017600065FE0020544988610620FEF75FFEE00711
:10177000C00F514988613C20FEF758FE6410681C78
:10178000C5B2082DE7DB01204B498861FEF74EFE0C
:1017900070BD70B5002400251CE001204649886119
:1017A000FEF744FE64100020434988610420FEF7E0
:1017B0003DFE0120404988610420FEF737FE3E4887
:1017C0008069002801D0802004433C20FEF72EFED3
:1017D000681CC5B2082DE0DB01203749886120462E
:1017E00070BDF0B587B0002004900024FFF77CFFA7
:1017F000CC20FFF7ACFF4420FFF7A9FFFFF774FFF1
:10180000CC20FFF7A4FFBE20FFF7A1FFFFF7C1FF29
:101810000590FFF7BEFF07463C46240205980443A7
:101820000120C003844224DDE043401C84B22046F2
:1018300000F08FFB05460022204B00F08DFB03914A
:10184000029000F055F904901D49049800F01CFD29
:10185000019000F0ADFC054600221A4B00F0FFFAA3
:101860000391029000F028FB84B20120C0030443DE
:101870001DE0204600F06DFB0022104B039102900A
:1018800000F06AFB054600F033F904900C49049817
:1018900000F0FAFC019000F08BFC05460022094B99
:1018A00000F0DDFA0391029000F006FB84B220B252
:1018B0000549088107B0F0BD004200500000B03F6C
:1018C000000020410000E03FBC000020F8B5042AE1
:1018D0002CD3830712D00B78491C0370401C521E76
:1018E00083070BD00B78491C0370401C521E8307E2
:1018F00004D00B78491C0370401C521E8B079B0FB1
:1019000005D0C91ADF002023DE1B08C90AE0FEF754
:101910002BFCF8BD1D4608C9FD401C46B4402C43B5
:1019200010C0121F042AF5D2F308C91A521EF0D4AF
:101930000B78491C0370401C521EEAD40B78491CDA
:101940000370401C521EE4D409780170F8BD01E018
:1019500004C0091F0429FBD28B0701D50280801C1B
:10196000C90700D00270704700290BD0C30702D00E
:101970000270401C491E022904D3830702D502804D
:10198000801C891EE3E70022EEE70022DFE7002249
:1019900003098B422CD3030A8B4211D300239C46AC
:1019A0004EE003460B433CD4002243088B4231D324
:1019B00003098B421CD3030A8B4201D394463FE0B8
:1019C000C3098B4201D3CB01C01A524183098B4218
:1019D00001D38B01C01A524143098B4201D34B0101
:1019E000C01A524103098B4201D30B01C01A524164
:1019F000C3088B4201D3CB00C01A524183088B42EB
:101A000001D38B00C01A524143088B4201D34B00D3
:101A1000C01A5241411A00D2014652411046704745
:101A20005DE0CA0F00D04942031000D3404253404A
:101A300000229C4603098B422DD3030A8B4212D30A
:101A4000FC22890112BA030A8B420CD3890192113C
:101A50008B4208D3890192118B4204D389013AD079
:101A6000921100E08909C3098B4201D3CB01C01A4E
:101A7000524183098B4201D38B01C01A5241430961
:101A80008B4201D34B01C01A524103098B4201D34F
:101A90000B01C01A5241C3088B4201D3CB00C01ABC
:101AA000524183088B4201D38B00C01A5241D9D2D4
:101AB00043088B4201D34B00C01A5241411A00D255
:101AC0000146634652415B10104601D34042002B51
:101AD00000D54942704763465B1000D3404201B5D0
:101AE0000020C046C04602BD7047704770470000E6
:101AF0000246C80FC00781434B0030B54B405B0026
:101B00009B0D20D01923DB06C91801231B05994220
:101B100020DB0324A40704251346AB400BD3002B82
:101B200004D1EB0613409B001B1904D40124640765
:101B3000002312195941FF231B0599420BD2C900FA
:101B40000143500F09E0CB0204D5014308030243CF
:101B500005D0054830BDFF21C905084330BD084602
:101B600007210905884330BD0000C07FF0B50C4651
:101B7000871A9C410D46861A9D4103D2C01BA14184
:101B8000D21963410D0D1F0DC64EEC1BAE435BD049
:101B90007F057F0D0026002F50D02D05AC46A943B0
:101BA000DD020123ED0A1B051D4320231B1B23D44B
:101BB0001746E740381871412F46E740CC199D4041
:101BC0002818314661410C0D26D161449A4012D546
:101BD0000023401C594152000DD140084000B24A38
:101BE0004B00934207D305204007081801D5511038
:101BF00000E0AE493046F0BD6B00002A00D0012263
:101C00009A18203C1F231B1B01D5002302E0E5404E
:101C1000281871410C0DD8D0012424050919C407D6
:101C2000CD0740084908E40F28436144002CD6D072
:101C30000024401C61419A40D1D1CEE76A05520D83
:101C4000D9D1C90FC907D5E7974D4E00002801D05B
:101C5000012400E0002434195F00002A01D001268D
:101C600000E00026BE19924FAC420BD8AE4209D814
:101C7000B44205D0BD00AC42BDD010461946F0BDFF
:101C80009942FCD000203946F0BDF0B51FB40C4697
:101C90000F46811A9F412546861A9D4106D201258D
:101CA000ED076F40401ABC4152187B41210D1E0DBB
:101CB0008D1BAC467B4D8D437ED075056D0D7CD064
:101CC0000D05AE46AC431B031B0B7A4D52429D41A2
:101CD000202366469B1B14D31746F740381800266E
:101CE0000090744160462F460741E41900989D40DA
:101CF0002818664116D4714671189A4025D50123DB
:101D000020E093182A466A415200002B00D0521C52
:101D1000203E1E239B1B002B61DD3541EE1728184A
:101D20006641E8D5001876415B1C9A4000D3401C00
:101D30004B05F3181524E34010D3002B52D0714605
:101D40007118D30FC01802D3491C05B0F0BD012390
:101D5000DB079A42F9D140084000F6E7012252051C
:101D6000B21801D1002853D00123CC0ADB029943D9
:101D7000891E002A08D1020C03D0020C000410397D
:101D800002E00246002020390023550B05D1120243
:101D90000823550B01D152010D23550C01D112011D
:101DA0001B1DD50C01D192009B1C150D01D15200B9
:101DB0005B1C2025EE1A01E02CE022E00546F540F0
:101DC00015439840CA1AE10769181305C918002A73
:101DD000BBDA032040070818C10FC9070FE071469E
:101DE0006118B2E7F10740080843711071444A00D6
:101DF0000CD001235B059A42A7D2C90FC907002066
:101E0000A3E74905490D25D1002001E00028F4D1C0
:101E100000219AE7244D6600002801D0012100E04E
:101E2000002171185F00002A01D0012600E0002681
:101E3000BE191F4FA9420FD8AE420DD8B14207D0EC
:101E4000BD00A94206D01946A802414010467CE7D1
:101E50009C4201D0214678E70020394675E730B42E
:101E60000C465C4004D50124E407634030BC0CE719
:101E700030BC7BE630B40C465C4004D50124E4075A
:101E8000634030BC72E630BCFFE630B40124E407A6
:101E900061400D465D4001D430BC67E6634030BC14
:101EA000F3E60000FF0700000000E0FF0000F07F05
:101EB0000000F87F0000F0FFCB02420D10B51A437E
:101EC0000B1504D00124E4072243002B06DB0A4C47
:101ED000E31A05D41046D840FF2B00DD002010BDCA
:101EE0004A00002800D001201018044A9042F5D87A
:101EF000C817C04310BD00001E0400000000E0FF32
:101F00001F22030C02D10F22000402D0030E03D0C3
:101F100004E0002001467047083A0002030F01D197
:101F2000121F0001830F01D1921E8000002801DBE7
:101F3000521E4000120551184205C01241181046A9
:101F40007047C10FC90700D04042012292071143D8
:101F5000D6E701218907D3E7F0B5904C0D09264655
:101F6000AC46AE430D465D4087B0002E7ED01E09C4
:101F70002746B743FAD067462740ED0F3D4326403A
:101F800075D024012142FBD07419FF25AD04641BD8
:101F90000494CC02D90201231B05C90A1943E40A9F
:101FA0001C430F012401030F110F1C430F430501B4
:101FB000A10B88032D0916018443A80B82039543C6
:101FC000BB0B9A0397433609BC46B20B9703BE433B
:101FD0000746574303972F4677430296BE46029F14
:101FE0004619D71906967E430597039FF71B764639
:101FF000BE1B77463F0100970196039FB60BF6196B
:10200000B646019E009FB604BF1902D37646761CE1
:10201000B64676467600002F01D001273E4367463C
:102020007D43AE46029F25467D4300956D00AE1967
:1020300075466D00AF1965465D19069E03956E43A2
:102040007546751BAE460D19059E02956E43009DA3
:102050005843761B75462D1A4A439646B21A00928B
:102060000195FA0606D07D09012201E076E072E0D2
:10207000154300E07D09020A0006002745197A4150
:102080007646300A360676195041019A950D92022D
:10209000961945410098820D800280196A41594382
:1020A00063465C43039D029B6B435B1A1E1BB30E8E
:1020B000B601B6187B410A0B090589195A41230A52
:1020C000240624184B418B4200D2521C01204002AE
:1020D000824203D315210226F64302E0142103268F
:1020E000F6432020451AAA401F46AF40CB40204669
:1020F000C840049913430914711809055A18049922
:102100003843C9075140AC4009D001239C4006D355
:102110000023401C5941002C01D140084000204BB5
:10212000002A03DB1A4201D08B4312D1012204980A
:102130009206904207DB0520400709181948014321
:10214000C012414004E0032040070818C10FC9072E
:10215000002007B0F0BD0020E907FAE706180C469A
:102160004C4111487642A04114D394181A465A4162
:102170000D48644290410DD3012049004005814241
:1021800008D35900814205D3E90F054AC907002049
:102190001143DEE700200549DBE700000000FF07F0
:1021A0000000F07FFFFFFF7F0000E0FF0000F87FEE
:1021B0000121C9050123411842001B06D3185B0EFB
:1021C0000BD0C1100722D2068918400752428A1844
:1021D00002D50922120789187047090208D501465D
:1021E000002A03D0C10FC90700207047104670476E
:1021F000420202D00020034970470721090501432C
:10220000F4E700000000F87F754600F023F8AE46C2
:10221000050069465346C008C000854618B020B581
:10222000FEF790F860BC00274908B6460026C0C5F6
:10223000C0C5C0C5C0C5C0C5C0C5C0C5C0C5403D7E
:1022400049008D4670470446C046C0462046FDF70B
:1022500084FF0000004870476002002001491820F8
:10226000ABBEFEE726000200704730B47446641E21
:102270002578641CAB4204D3635D5B00E31830BC7B
:1022800018471D46F8E7000070B5420064414B0056
:102290005C41120E39D01B0E38D0FF2A3CD0FF2BE8
:1022A0003AD040024902400A490A060045184E4306
:1022B000000A090AD2184843ED017F3A0104731A53
:1022C0004019190C4318990F04D001215B084907E4
:1022D0005B1A521CD80904D3401CF50301D19D069A
:1022E00007D0FF2A08D2D50506D0E40720434019BD
:1022F00070BD0125A843F4E7002A01DCE00770BDAA
:102300002402FF202043C00570BD1B0EFF2A03D00E
:10231000FF2B01D0E00770BDFF2645003606B54211
:1023200006D84D00B54203D8D218FF2A00D0E7E7FF
:10233000004870BD0000C07F001BB7000000000017
:1023400080F0FA02102700000000000000000000EA
:1023500000000000008051017823000000000020F0
:10236000AC0000000401000024240000AC000020A8
:10237000140400002001000080F0FA023200000086
:1023800080F0FA02005457332D31362020202020CF
:1023900020202020205457332D313600000000002B
:1023A0000000000000444F4E59414E2020202020C4
:1023B00020202020200000000000000000008C0EE3
:1023C0002400B2092000D9041C00D50318004C03D6
:1023D00014000E0310006D020C00F00108008801CB
:1023E000040036010000FAFF3601FBFF0000FCFF8D
:1023F0000000FDFF0000FEFF0000FFFF00000000E6
:1024000000000100000002000000030000000101C4
:1024100000000000000000000000000000000000BC
:0424200000000000B8
:04000005000000C136
:00000001FF
