:020000040000FA
:100000004807002019030000390300003B030000EB
:1000100000000000000000000000000000000000E0
:100020000000000000000000000000003D03000090
:1000300000000000000000003F030000410300003A
:100040004303000043030000430300004303000098
:100050004303000043030000430300004303000088
:100060004F1400004303000043030000430300005B
:1000700043030000A3080000430300004303000003
:100080004303000043030000870D0000430300000A
:100090004303000043030000430300004303000048
:1000A0004303000043030000430300004303000038
:1000B0004303000033150000430300004303000026
:1000C00000F002F800F040F80CA030C808382418FE
:1000D0002D18A246671EAB4654465D46AC4201D180
:1000E00000F032F87E460F3E0FCCB6460126334272
:1000F00000D0FB1AA246AB4633431847CC1700008A
:10010000EC170000103A02D378C878C1FAD8520729
:1001100001D330C830C101D504680C6070470000BD
:100120000023002400250026103A01D378C1FBD813
:10013000520700D330C100D50B6070471FB5C046D1
:10014000C0461FBD10B510BD01F06FFB1146FFF793
:10015000F5FF00F00CFA01F087FB03B4FFF7F2FFA4
:1001600003BC01F08BFB000070B505460C4616463B
:1001700002E00FCC0FC5103E102EFAD2082E02D38B
:1001800003CC03C5083E042E07D301CC01C5361F9E
:1001900003E021782970641C6D1C761EF9D270BDB5
:1001A00070B500F068F84E4908604E480069450790
:1001B0006D0F022D03D0A8004B490C5801E04848B0
:1001C0000468484880690007000F461C31462046F5
:1001D00001F07BFA454908604549444800684A10E7
:1001E000801801F072FA4349086070BD10B5002311
:1001F0003B4C236000223B4B1B695907490F0029E8
:1002000011D13D4B374C23623C4804E00346401E6D
:10021000002B00DC04E0334BDB6804242342F5D0E0
:1002200000BF012212E0072910D1354B2D4C23626B
:10023000344804E00346401E002B00DC04E0294B58
:10024000DB6804242342F5D000BF0122002A11D02C
:1002500000BF59232C4C236016232360882323607E
:1002600000BF02231F4C236100BF0023264C2360E4
:1002700000BF00BF10BDFEB524A0006800900020A4
:1002800002901848046A0013044227D10120C004D8
:10029000044201D01E4800E01E48054601204004EB
:1002A000044201D0029519E0032080032040800B16
:1002B00069460F5CE005C00D801C01901F204002C4
:1002C0002040400A861C32467A431146AB08019A08
:1002D0005343184601F0F9F9800002900298FEBDE0
:1002E0000800002000020050A818000000000020B4
:1002F00040420F000400002017420000E02E0000E2
:100300003956080066560000000100500102020440
:1003100000805101001BB7000D480E4901600E49D5
:1003200001600E4901600E4A0E4911600021016012
:100330000D4880470D480047FEE7FEE7FEE7FEE771
:10034000FEE7FEE70A480B49094A0B4B70470000DD
:100350000001005059000000160000008800000055
:1003600024000050A55A0000ED010000C10000006B
:1003700048050020480700204805002010B501204E
:1003800080F3108800BF00F066F900F0AAF900F0D1
:10039000DCFC00F0D3F901F093F801F045F80020FF
:1003A00080F3108800BF10BD10B57A4C7A48006801
:1003B000142814D379480078401C7849087000202C
:1003C0007549086001F024F87548406B002803D097
:1003D00000207349486302E0012071494863714875
:1003E0000068142871D300206E4908606E480078B8
:1003F0000A2802DD01206C4908706B48007800F083
:1004000077FF69480078012805D1362267492046E0
:1004100001F0FAF85FE064480078022805D136223E
:100420006349204601F0F0F855E05F480078032862
:1004300005D136225F49204601F0E6F84BE05A48E4
:100440000078042805D136225B49204601F0DCF80B
:1004500041E055480078052805D136225749204605
:1004600001F0D2F837E050480078062805D136224E
:100470005349204601F0C8F82DE04B480078072882
:1004800005D136224F49204601F0BEF823E0464808
:100490000078082805D136224B49204601F0B4F8EF
:1004A00019E041480078092805D1362247492046FD
:1004B00001F0AAF80FE03C4800780A2806D136225D
:1004C0004349204601F0A0F805E02FE036224049DC
:1004D000204601F099F83F480079002827D120787C
:1004E000012824D1304800783B4908703B48007807
:1004F000401C3A49087008460078032825DD002092
:1005000020703748C08828490978491E01228A404E
:1005100090433349C880002030490870FF202E499D
:10052000087021480078401C1F4908700DE02A48D7
:1005300000781D490978884202D1002027490870B7
:1005400019480078401C1849087026480068FF21A7
:10055000913188420AD305200007806802210843B0
:1005600005210907886000201E49086010BDFFF7BB
:1005700005FF1D48006A0121C90208431A490862A3
:1005800006E0FFF711FF134800F0C3F900F0A1FCEB
:10059000F7E70000B6020020440000203E000020E3
:1005A00000420050480000200C0000209A0000206B
:1005B000D0000020060100203C0100207201002034
:1005C000A8010020DE010020140200204A020020C1
:1005D00080020020600000200D0000200E0000209E
:1005E000EC0200204C00002000000E4010B5044634
:1005F00021467D22D2005143434A126851430846A6
:10060000424901F062F842494861002088610520B2
:10061000086100BF3E480069012109040842F9D081
:1006200010BD70B50446002500BF04E07D20C00069
:10063000FFF7DCFF6D1CA542F8D370BD70B5044612
:10064000002500BF04E07D20C000FFF7EAFF6D1C1D
:10065000A542F8D370BD00BF59202E49086016206E
:1006600008608820086000BF2B4800680C21084300
:10067000294908601820294904E00A46491E002A31
:1006800000DC04E0244AD26802408242F5D100BF77
:1006900000BF1F2020490861214848610846406981
:1006A0000721090208431C494861002088611D4850
:1006B0000862084600684008400008600846406834
:1006C000042108431449486017488860401C0521EC
:1006D0000907C8600020C86000BF0E49086000BF5D
:1006E0007047124805210907486303200003C863C7
:1006F0000F48104908600120486000200E494860FA
:10070000086001204863704704000020D4080000FE
:1007100000E000E0000100500002005090D0030013
:100720000F0000032EC2050005010210030C00009B
:10073000FDFF000000400050004200500A20FB492D
:1007400048620320C8608815886008464068012117
:100750000843F64948600D2001218140F44A1160A8
:1007600000BF704700B53922125C002A00D000BDDE
:10077000F04A1268002A04D1027042700023372226
:1007800013540278130001F080F808051424323C59
:10079000586D7E86F52909D1012202703722115445
:1007A000002242706422E34B1A6001E000220270D2
:1007B00074E081703722125C5218D3B2372213547E
:1007C0008278002A02D00022027001E00222027028
:1007D00064E0FA2908D1032202703722125C521811
:1007E000D3B23722135401E00022027056E0C170E8
:1007F0003722125C5218D3B23722135404220270EB
:100800004CE001710279322A02DD0022027013E00D
:100810000279002A08D0052202703722125C521891
:10082000D3B23722135407E0062202703722125C3B
:100830005218D3B23722135430E04378421DD154BA
:100840003722125C5218D3B2372213544278521C0A
:100850004270427803799A4203DB0622027000223A
:1008600042701BE0382211543722135C3822125C8C
:10087000934205D00023372213540022027001E076
:10088000072202700AE0AA2902D101233922135457
:100890000022027002E00022027000BF00BF00BF11
:1008A00065E730B5FF24A148C569012080F31088B1
:1008B00000BF000205420CD006E09C480068C4B2AC
:1008C00021469D48FFF74EFF9848C069C007C00FFA
:1008D000F3D1002080F3108800BF30BD10B504466E
:1008E000924804606420FFF781FE10BD70B5054694
:1008F0000E46012091490860002403E0285DFFF7BF
:10090000EDFF641CB442F9D100208C49086001203D
:1009100070BD70B5044600253920005D012800D067
:1009200070BDE07891287DD16079030000F0ADFFC3
:100930000B260727476788A8C8E8FCFB260001208C
:100940007F4908707F48C088012108437D49C880DD
:10095000A0797B494870E07988702079001FC870C1
:10096000002507E0281D611D095C7548001D4155E3
:10097000681CC5B22079001FA842F3DC40E10120C9
:10098000714908706F48C088022108436D49C880CA
:10099000A0796D494870E07988702079001FC8708F
:1009A000002507E0281D611D095C6748001D4155B1
:1009B000681CC5B22079001FA842F3DC20E10120A9
:1009C000624908705F48C088042108435D49C880B7
:1009D000A0795E494870E07988702079001FC8705E
:1009E000002507E0281D611D095C5848001D415580
:1009F000681CC5B22079001FA842F3DC00E1012089
:100A0000534908704F48C088082108434D49C880A1
:100A1000A0794F494870E07988702079001FC8702C
:100A2000002508E0EEE0281D611D095C4848001D16
:100A30004155681CC5B22079001FA842F3DCDFE0F5
:100A40000120444908703F48C088102108433D49AF
:100A5000C880A0793F494870E07988702079001FEC
:100A6000C870002507E0281D611D095C3948001D7C
:100A70004155681CC5B22079001FA842F3DCBFE0D5
:100A80000120354908702F48C088202108432D498E
:100A9000C880A07930494870E07988702079001FBB
:100AA000C870002507E0281D611D095C2A48001D4B
:100AB0004155681CC5B22079001FA842F3DC9FE0B5
:100AC0000120264908701F48C088402108431D495D
:100AD000C880A07921494870E07988702079001F8A
:100AE000C870002507E0281D611D095C1B48001D1A
:100AF0004155681CC5B22079001FA842F3DC7FE095
:100B00000120174908700F48C088802108430D490B
:100B1000C880A07912494870E07988702079001F58
:100B2000C870002525E04AE028E0000000001540DC
:100B300000E100E040000020600000200042005082
:100B40009A000020EC020020D000002006010020C6
:100B50003C01002072010020A8010020DE010020DD
:100B600014020020281D611D095C5B484155681C6A
:100B7000C5B22079001FA842F4DC41E001205749AA
:100B800008705748C088FF21013108435449C88084
:100B9000A07952494870E07988702079001FC870A8
:100BA000002507E0281D611D095C4C48001D4155CA
:100BB000681CC5B22079001FA842F3DC20E00120A8
:100BC000484908704648C088012149020843444901
:100BD000C880A07943494870E07988702079001F67
:100BE000C870002507E0281D611D095C3D48001DF7
:100BF0004155681CC5B22079001FA842F3DC00BF34
:100C000000BF00BF00BF3A21204600F05AFD00217E
:100C10003920015500BF83E670B50446324D012CE2
:100C200005D136223149284600F0EEFC4DE0022C79
:100C300005D136222E49284600F0E6FC45E0032C7B
:100C400005D136222B49284600F0DEFC3DE0042C7D
:100C500005D136222849284600F0D6FC35E0052C7F
:100C600005D136222549284600F0CEFC2DE0062C81
:100C700005D136222249284600F0C6FC25E0072C83
:100C800005D136221F49284600F0BEFC1DE0082C85
:100C900006D136221049091F284600F0B5FC14E0A1
:100CA000092C05D136220D49284600F0ADFC0CE098
:100CB0000A2C05D136220B49284600F0A5FC04E099
:100CC00036220849284600F09FFC2878002800D1E9
:100CD00070BD0120FCE70000180200204A0200203D
:100CE000EC02002080020020B60200209A000020C2
:100CF000D0000020060100203C01002072010020ED
:100D0000A8010020DE01002010B5002300BF05E08F
:100D100004780C70401C491C5C1CE3B29342F7DB66
:100D200010BD002200BF04E000230370401C531CD0
:100D3000DAB28A42F8DB704702460A205043014685
:100D400048010918090B88B2704710B5FC480068C3
:100D500040210843FA4908600220486000204862A8
:100D60000846006880210843F5490860CC200860E7
:100D70000321122000F077FA122001218140F14A6C
:100D8000116000BF10BD10B5ED48C4684069C007D0
:100D9000C00F06D0EA48406901210843E84948618C
:100DA00096E0A02C7DD00CDC682C49D004DC002C13
:100DB0006BD0602C22D142E0802C48D0882CF9D115
:100DC00068E0B82C1BD004DCA82C07D0B02C7ED156
:100DD00005E0C02C2ED0C82C79D12CE000BF00201B
:100DE000D9490860084601680068401CD64A10606E
:100DF000D648405CD2498860CC20086067E0D24881
:100E000001680068401CD04A1060D048405CCC4962
:100E10008860CE48807811460968884206D800204C
:100E200011460860CC20C649086002E0CC20C449C5
:100E300008604CE000BFCC20C149086047E000BF1B
:100E40000020C3490860CC20BD4908603FE0BC4891
:100E50008068C1B2BE4802680068401CBC4B186084
:100E6000BC48815418460068032803D1B9488078EB
:100E7000B9490860B6480068B7490968884205D38F
:100E8000CC20AF49086004E00BE01AE0CC20AC496C
:100E900008601CE00020B0490860CC20A849086028
:100EA00015E00020AD490860CC20A5490860322239
:100EB000AB49A848FFF728FF3221A648FFF731FFCA
:100EC00005E0D8209E490860CC20086000BF00BF24
:100ED00010BDF8B500260024A24DA1480078552881
:100EE00019D19F488078042815D19D484079AA28B7
:100EF00011D155209549087000204870062088704F
:100F00004020C87013200871AA20487132219448EB
:100F1000FFF707FFF8BD9248007855281BD190488D
:100F20004079AA2817D18E488078002813D100BFB5
:100F300059208D490860162008608820086000BF8D
:100F400002208A49086005200007806802210843C2
:100F500005210907886082480078F52806D1804875
:100F60008078401E7E49085CAA2803D00020804972
:100F70000860CFE700207F490860002408E0784837
:100F8000005D7C49096848407A490860601CC4B229
:100F900073488078801EA042F1DC71488078801E02
:100FA0006F49085C73490968884203D00020714981
:100FB0000860AFE7002070490860002408E0684836
:100FC000005D6D49096840186B490860601CC4B237
:100FD00063488078801EA042F1DC61488078052853
:100FE00019D0654801785E488078801E5C4A1154AB
:100FF00010468178FFF77AFC0A20FFF712FB584968
:10100000487800F075F90A20FFF70BFB32215448AD
:10101000FFF787FE25E15248807805287DD15048AA
:1010200040785649086008460068012805D13622F4
:101030005349284600F0E8FA5EE05048006802286C
:1010400005D136224F49284600F0DEFA54E04B48DD
:101050000068032805D136224B49284600F0D4FA0F
:101060004AE046480068042805D136224749284608
:1010700000F0CAFA40E041480068052805D1362250
:101080004349284600F0C0FA36E03C48006806288C
:1010900005D136223F49284600F0B6FA2CE0374801
:1010A0000068072805D136223B49284600F0ACFAF3
:1010B00022E032480068082805D136223749284600
:1010C00000F0A2FA18E02D480068092805D1362260
:1010D0003349284600F098FA0EE0284800680A28AC
:1010E00005D136222F49284600F08EFA04E0362238
:1010F0002C49284600F088FA20480068002866D06D
:10110000F520124908701D4800784870E878801D65
:101110008870A878C870002407E09EE0281D015D53
:10112000201D0A4A1154601CC4B2E878A042F5DCC4
:101130000021E878001D054A1154002439E0000020
:101140000000024000E100E03000002058040020D0
:101150002C000020F4030020180000204C00002088
:1011600026040020B60200200001005000C00050FC
:10117000140000202400002028000020200000206F
:101180009A000020D0000020060100203C01002031
:1011900072010020A8010020DE01002014020020BE
:1011A0004A020020800200204A48005D4640601C40
:1011B000C4B2E878001DA042F6DCE878001D45497D
:1011C0000E54AA21E878401D424A115440E0F5200F
:1011D00040490870002048700B2088703E4800F09D
:1011E00087F987B23846FFF7A7FD3C4948803C485D
:1011F00000F07EF987B23846FFF79EFD37498880B8
:101200000846408800123349487134488078887114
:10121000324880880012C8703048007908712F4821
:10122000C0880012C8712D48807908720020487269
:10123000002408E02748407A2649095D48402549AE
:101240004872601CC4B2092CF4DBAA2021498872C0
:1012500032212448FFF765FD03E032212148FFF7E2
:1012600060FD00BF56E610B5002819DA1E4A0307D4
:101270001B0F083B9B089B00D2588307DC0EFF2303
:10128000A3409A438B071B0E8407E40EA3401A4326
:10129000154B0407240F083CA408A4001A5118E0B9
:1012A000124A03231B02D21883089B00D2588307DB
:1012B000DC0EFF23A3409A438B071B0E8407E40E2A
:1012C000A3401A43094B032424021B198408A400D9
:1012D0001A5110BD58040020C4040020EC02002064
:1012E000D4040020260400201CED00E000E100E012
:1012F00010B50446012C0AD1494948700846407887
:10130000401F087106214648FFF7F0FA7CE0022CE6
:101310000BD102204249487008464078401F0871AE
:1013200006213F48FFF7E2FA6EE0032C0BD10320C1
:101330003B49487008464078401F087106213848EC
:10134000FFF7D4FA60E0042C0BD104203449487034
:1013500008464078401F087106213148FFF7C6FA59
:1013600052E0052C0BD105202D49487008464078E5
:10137000401F087106212A48FFF7B8FA44E0062CFE
:101380000BD106202649487008464078401F087156
:1013900006212348FFF7AAFA36E0072C0BD10720D5
:1013A0001F49487008464078401F087106211C48B4
:1013B000FFF79CFA28E0082C0BD108201849487048
:1013C00008464078401F087106211548FFF78EFA3D
:1013D0001AE0092C0BD109201149487008464078C1
:1013E000401F087106210E48FFF780FA0CE00A2C16
:1013F0000AD10A200A49487008464078401F0871FF
:1014000006210748FFF772FA1420FFF70AF910BD0A
:101410001D2001218140034A116000BF7047000078
:101420003800002000E100E01E4881030860092028
:10143000C00248600820012181401B4A116000BFA2
:101440001A48006891050843184908607047184811
:101450000068002804D016480068401E144908603F
:1014600014480068142804D212480068401C11492E
:10147000086011480068142804D20F480068401C16
:101480000D4908600D480068FF219131884204D25F
:101490000A480068401C0949086001200349886027
:1014A000704700000400012800E100E00000014056
:1014B0004000002044000020480000204C00002094
:1014C0000F204A490862032048620846406B012108
:1014D00008434649486300BF4448406B0221084224
:1014E000FAD01D2001218140414A116000BF7047A0
:1014F00070B501460023002400220DE095004D59EF
:101500009D4201D395004B5995004D59A54201D8F4
:1015100095004C59551CEAB2042AEFDB4E680D6861
:10152000AD198E68AD19CE68AD19ED1A2D1B68087E
:1015300070BD00B51D20012181402D4A803211600F
:1015400000BF2A48006BC007C00F28D0274800689A
:101550000121490408420CD02448006880B2254982
:1015600009788900244A505022480078401C2149BB
:1015700008701E4840680121490408420CD01B48ED
:10158000406880B21D49097889001D4A50501B48A7
:101590000078401C19490870012014490863154857
:1015A0000078032812DD1548007803280EDD00209E
:1015B00010490870114908700F48FFF799FF114949
:1015C00048800F48FFF794FF0E498880094800784B
:1015D000C82802DD00200749087008480078C8289C
:1015E00002DD00200549087000BD000000000E402B
:1015F00000E100E050000020C40400205100002061
:10160000D4040020EC020020F8B5042A2CD3830770
:1016100012D00B78491C0370401C521E83070BD05C
:101620000B78491C0370401C521E830704D00B78B2
:10163000491C0370401C521E8B079B0F05D0C91A12
:10164000DF002023DE1B08C90AE0FEF78DFDF8BD90
:101650001D4608C9FD401C46B4402C4310C0121F53
:10166000042AF5D2F308C91A521EF0D40B78491C8B
:101670000370401C521EEAD40B78491C0370401CB6
:10168000521EE4D409780170F8BD01E004C0091FBE
:101690000429FBD28B0701D50280801CC90700D02A
:1016A0000270704700290BD0C30702D00270401CA3
:1016B000491E022904D3830702D50280801C891E9B
:1016C000E3E70022EEE70022DFE7002203098B4276
:1016D0002CD3030A8B4211D300239C464EE00346D1
:1016E0000B433CD4002243088B4231D303098B4285
:1016F0001CD3030A8B4201D394463FE0C3098B42BB
:1017000001D3CB01C01A524183098B4201D38B0113
:10171000C01A524143098B4201D34B01C01A5241B6
:1017200003098B4201D30B01C01A5241C3088B42FB
:1017300001D3CB00C01A524183088B4201D38B00E6
:10174000C01A524143088B4201D34B00C01A524188
:10175000411A00D201465241104670475DE0CA0F5F
:1017600000D04942031000D34042534000229C461F
:1017700003098B422DD3030A8B4212D3FC22890129
:1017800012BA030A8B420CD3890192118B4208D3FF
:10179000890192118B4204D389013AD0921100E061
:1017A0008909C3098B4201D3CB01C01A5241830975
:1017B0008B4201D38B01C01A524143098B4201D3A2
:1017C0004B01C01A524103098B4201D30B01C01ACD
:1017D0005241C3088B4201D3CB00C01A5241830847
:1017E0008B4201D38B00C01A5241D9D243088B429D
:1017F00001D34B00C01A5241411A00D20146634640
:1018000052415B10104601D34042002B00D54942A3
:10181000704763465B1000D3404201B50020C046CC
:10182000C04602BD704770477047754600F022F809
:10183000AE46050069465346C008C000854618B04C
:1018400020B5FEF77FFD60BC00274908B64600269C
:10185000C0C5C0C5C0C5C0C5C0C5C0C5C0C5C0C560
:10186000403D49008D4670470446C046C04620466C
:10187000FEF773FC00487047E4040020014918207B
:10188000ABBEFEE726000200704730B47446641E0B
:101890002578641CAB4204D3635D5B00E31830BC65
:1018A00018471D46F8E70000001BB70000000000C5
:1018B00080F0FA0210270000000000000000000085
:1018C0000000000000805101E81800000000002026
:1018D00054000000040100003C19000054000020E6
:1018E000F40600002001000080F0FA02320000003F
:1018F00080F0FA0200FF000000000000000000007D
:101900000300000000000000FF00000000000000D5
:1019100000000000000000000000000000000000C7
:10192000F5000600FBAA0000000000000000000017
:0C193000000000000000000000000000AB
:04000005000000C136
:00000001FF
