:020000040000FA
:100000004807002019030000390300003B030000EB
:1000100000000000000000000000000000000000E0
:100020000000000000000000000000003D03000090
:1000300000000000000000003F030000410300003A
:100040004303000043030000430300004303000098
:100050004303000043030000430300004303000088
:100060004B1400004303000043030000430300005F
:1000700043030000AF0800004303000043030000F7
:100080004303000043030000830D0000430300000E
:100090004303000043030000430300004303000048
:1000A0004303000043030000430300004303000038
:1000B000430300002F15000043030000430300002A
:1000C00000F002F800F040F80CA030C808382418FE
:1000D0002D18A246671EAB4654465D46AC4201D180
:1000E00000F032F87E460F3E0FCCB6460126334272
:1000F00000D0FB1AA246AB4633431847C81700008E
:10010000E8170000103A02D378C878C1FAD852072D
:1001100001D330C830C101D504680C6070470000BD
:100120000023002400250026103A01D378C1FBD813
:10013000520700D330C100D50B6070471FB5C046D1
:10014000C0461FBD10B510BD01F06DFB1146FFF795
:10015000F5FF00F00CFA01F085FB03B4FFF7F2FFA6
:1001600003BC01F089FB000070B505460C4616463D
:1001700002E00FCC0FC5103E102EFAD2082E02D38B
:1001800003CC03C5083E042E07D301CC01C5361F9E
:1001900003E021782970641C6D1C761EF9D270BDB5
:1001A00070B500F068F84E4908604E480069450790
:1001B0006D0F022D03D0A8004B490C5801E04848B0
:1001C0000468484880690007000F461C31462046F5
:1001D00001F079FA454908604549444800684A10E9
:1001E000801801F070FA4349086070BD10B5002313
:1001F0003B4C236000223B4B1B695907490F0029E8
:1002000011D13D4B374C23623C4804E00346401E6D
:10021000002B00DC04E0334BDB6804242342F5D0E0
:1002200000BF012212E0072910D1354B2D4C23626B
:10023000344804E00346401E002B00DC04E0294B58
:10024000DB6804242342F5D000BF0122002A11D02C
:1002500000BF59232C4C236016232360882323607E
:1002600000BF02231F4C236100BF0023264C2360E4
:1002700000BF00BF10BDFEB524A0006800900020A4
:1002800002901848046A0013044227D10120C004D8
:10029000044201D01E4800E01E48054601204004EB
:1002A000044201D0029519E0032080032040800B16
:1002B00069460F5CE005C00D801C01901F204002C4
:1002C0002040400A861C32467A431146AB08019A08
:1002D0005343184601F0F7F9800002900298FEBDE2
:1002E0000800002000020050A418000000000020B8
:1002F00040420F000400002017420000E02E0000E2
:100300003956080066560000000100500102020440
:1003100000805101001BB7000D480E4901600E49D5
:1003200001600E4901600E4A0E4911600021016012
:100330000D4880470D480047FEE7FEE7FEE7FEE771
:10034000FEE7FEE70A480B49094A0B4B70470000DD
:100350000001005059000000160000008800000055
:1003600024000050A55A0000ED010000C10000006B
:1003700048050020480700204805002010B501204E
:1003800080F3108800BF00F06AF900F0AEF900F0C9
:10039000DAFC00F0D9F901F091F801F043F80020FF
:1003A00080F3108800BF10BD10B57C4C7C480068FD
:1003B000142814D37B480078401C7A490870002028
:1003C0007749086001F022F877480068002803D0D8
:1003D00000207549086002E00120734908607348F5
:1003E0000068142871D300207049086070480078B4
:1003F0000A2802DD01206E4908706D48007800F07F
:1004000075FF6B480078012805D1362269492046DE
:1004100001F0F8F85FE066480078022805D136223E
:100420006549204601F0EEF855E061480078032860
:1004300005D136226149204601F0E4F84BE05C48E2
:100440000078042805D136225D49204601F0DAF80B
:1004500041E057480078052805D136225949204601
:1004600001F0D0F837E052480078062805D136224E
:100470005549204601F0C6F82DE04D480078072880
:1004800005D136225149204601F0BCF823E0484806
:100490000078082805D136224D49204601F0B2F8EF
:1004A00019E043480078092805D1362249492046F9
:1004B00001F0A8F80FE03E4800780A2806D136225D
:1004C0004549204601F09EF805E02FE036224249DA
:1004D000204601F097F841480079002827D120787C
:1004E000012824D1324800783D4908703D48007801
:1004F000401C3C49087008460078032825DD002090
:1005000020703948C0882A490978491E01228A404A
:1005100090433549C880002032490870FF20304997
:10052000087023480078401C214908700DE02C48D1
:1005300000781F490978884202D1002029490870B3
:100540001B480078401C1A49087028480068FF21A1
:10055000913188420AD305200007806802210843B0
:1005600005210907886000202049086010BDFFF7B9
:1005700005FF1F48006A0121C90208431C4908629F
:100580000BE000200849803948600860FFF70CFF45
:10059000124800F0BEF900F09AFCF2E7B602002023
:1005A000440000203E00002080420050480000200F
:1005B0000C0000209A000020D0000020060100203E
:1005C0003C01002072010020A8010020DE01002073
:1005D000140200204A020020800200206000002057
:1005E0000D0000200E000020EC0200204C00002036
:1005F00000000E4010B5044621467D22D200514332
:10060000444A126851430846434901F05CF84349A3
:100610004861002088610520086100BF3F480069EB
:10062000012109040842F9D010BD70B50446002527
:1006300000BF04E07D20C000FFF7DCFF6D1CA54279
:10064000F8D370BD70B50446002500BF04E07D20DE
:10065000C000FFF7EAFF6D1CA542F8D370BD00BFD4
:1006600059202F490860162008608820086000BFC4
:100670002C4800680C2108432A49086018202A49A0
:1006800004E00A46491E002A00DC04E0254AD2683C
:1006900002408242F5D100BF00BF1F2021490861FE
:1006A00022484861084640690721090208431D495C
:1006B0004861002088611E480862084600684008BA
:1006C0004000086008464068042108431549486016
:1006D00018488860401C05210907C8600020C860D0
:1006E00000BF0F49086000BF704713480521090784
:1006F000486303200003C8631048114908600320C1
:10070000486000200F494860086001200D49803191
:100710000860704704000020D408000000E000E0FA
:10072000000100500002005090D003000F000003B1
:100730002EC2050005010210030C0000F5FF0000A9
:1007400000400050004200500A20F849486203204F
:10075000C860881588600846406801210843F3494D
:1007600048600D2001218140F14A116000BF7047AF
:1007700000B53922125C002A00D000BDED4A126893
:10078000002A04D1027042700023372213540278E9
:10079000130001F078F808051424323C586D7E8669
:1007A000F52909D10122027037221154002242702A
:1007B0006422E04B1A6001E00022027074E0817054
:1007C0003722125C5218D3B2372213548278002A8F
:1007D00002D00022027001E00222027064E0FA29D5
:1007E00008D1032202703722125C5218D3B237228A
:1007F000135401E00022027056E0C1703722125CEF
:100800005218D3B237221354042202704CE0017103
:100810000279322A02DD0022027013E00279002AF6
:1008200008D0052202703722125C5218D3B2372248
:10083000135407E0062202703722125C5218D3B21A
:100840003722135430E04378421DD1543722125CD2
:100850005218D3B2372213544278521C4270427855
:1008600003799A4203DB06220270002242701BE0E9
:10087000382211543722135C3822125C934205D07F
:100880000023372213540022027001E00722027075
:100890000AE0AA2902D1012339221354002202704E
:1008A00002E00022027000BF00BF00BF65E730B564
:1008B000FF249E48C569012080F3108800BF000214
:1008C00005420CD006E099480068C4B221469A4817
:1008D000FFF74EFF9548C069C007C00FF3D1002055
:1008E00080F3108800BF30BD10B504468F48046007
:1008F0006420FFF77FFE10BD70B505460E4600244C
:1009000003E0285DFFF7F0FF641CB442F9D1012039
:1009100070BD70B5044600253920005D012800D067
:1009200070BDE07891287DD16079030000F0ABFFC5
:100930000B260727476788A8C8E8FCFB260001208C
:100940007E4908707E48C088012108437C49C880E0
:10095000A0797A494870E07988702079001FC870C2
:10096000002507E0281D611D095C7448001D4155E4
:10097000681CC5B22079001FA842F3DC3EE10120CB
:10098000704908706E48C088022108436C49C880CD
:10099000A0796C494870E07988702079001FC87090
:1009A000002507E0281D611D095C6648001D4155B2
:1009B000681CC5B22079001FA842F3DC1EE10120AB
:1009C000614908705E48C088042108435C49C880BA
:1009D000A0795D494870E07988702079001FC8705F
:1009E000002507E0281D611D095C5748001D415581
:1009F000681CC5B22079001FA842F3DCFEE001208C
:100A0000524908704E48C088082108434C49C880A4
:100A1000A0794E494870E07988702079001FC8702D
:100A2000002508E0ECE0281D611D095C4748001D19
:100A30004155681CC5B22079001FA842F3DCDDE0F7
:100A40000120434908703E48C088102108433C49B2
:100A5000C880A0793E494870E07988702079001FED
:100A6000C870002507E0281D611D095C3848001D7D
:100A70004155681CC5B22079001FA842F3DCBDE0D7
:100A80000120344908702E48C088202108432C4991
:100A9000C880A0792F494870E07988702079001FBC
:100AA000C870002507E0281D611D095C2948001D4C
:100AB0004155681CC5B22079001FA842F3DC9DE0B7
:100AC0000120254908701E48C088402108431C4960
:100AD000C880A07920494870E07988702079001F8B
:100AE000C870002507E0281D611D095C1A48001D1B
:100AF0004155681CC5B22079001FA842F3DC7DE097
:100B00000120164908700E48C088802108430C490E
:100B1000C880A07911494870E07988702079001F59
:100B2000C870002523E048E026E0000000001540E2
:100B300000E100E040000020600000209A0000205A
:100B4000EC020020D0000020060100203C01002023
:100B500072010020A8010020DE0100201402002004
:100B6000281D611D095C5B484155681CC5B2207990
:100B7000001FA842F4DC41E00120574908705748A3
:100B8000C088FF21013108435449C880A0795249E7
:100B90004870E07988702079001FC870002507E050
:100BA000281D611D095C4C48001D4155681CC5B2DB
:100BB0002079001FA842F3DC20E00120484908709A
:100BC0004648C0880121490208434449C880A079A9
:100BD00043494870E07988702079001FC87000256B
:100BE00007E0281D611D095C3D48001D4155681C3A
:100BF000C5B22079001FA842F3DC00BF00BF00BFD0
:100C000000BF3A21204600F05AFD0021392001554D
:100C100000BF85E670B50446324D012C05D1362261
:100C20003149284600F0EEFC4DE0022C05D1362279
:100C30002E49284600F0E6FC45E0032C05D136227B
:100C40002B49284600F0DEFC3DE0042C05D136227D
:100C50002849284600F0D6FC35E0052C05D136227F
:100C60002549284600F0CEFC2DE0062C05D1362281
:100C70002249284600F0C6FC25E0072C05D1362283
:100C80001F49284600F0BEFC1DE0082C06D1362284
:100C90001049091F284600F0B5FC14E0092C05D1C5
:100CA00036220D49284600F0ADFC0CE00A2C05D197
:100CB00036220B49284600F0A5FC04E036220849FC
:100CC000284600F09FFC2878002800D170BD012044
:100CD000FCE70000180200204A020020EC0200207D
:100CE00080020020B60200209A000020D0000020E0
:100CF000060100203C01002072010020A801002014
:100D0000DE01002010B5002300BF05E004780C7060
:100D1000401C491C5C1CE3B29342F7DB10BD00226F
:100D200000BF04E000230370401C531CDAB28A4267
:100D3000F8DB704702460A20504301464801091873
:100D4000090B88B2704710B5FC4800684021084381
:100D5000FA4908600220486000204862084600689E
:100D600080210843F5490860CC2008600321122047
:100D700000F077FA122001218140F14A116000BF92
:100D800010BD10B5ED48C4684069C007C00F06D05B
:100D9000EA48406901210843E849486196E0A02CEF
:100DA0007DD00CDC682C49D004DC002C6BD0602C8E
:100DB00022D142E0802C48D0882CF9D168E0B82CB0
:100DC0001BD004DCA82C07D0B02C7ED105E0C02CB1
:100DD0002ED0C82C79D12CE000BF0020D949086062
:100DE000084601680068401CD64A1060D648405C3E
:100DF000D2498860CC20086067E0D248016800686A
:100E0000401CD04A1060D048405CCC498860CE4835
:100E1000807811460968884206D80020114608608B
:100E2000CC20C649086002E0CC20C44908604CE0F0
:100E300000BFCC20C149086047E000BF0020C34983
:100E40000860CC20BD4908603FE0BC488068C1B262
:100E5000BE4802680068401CBC4B1860BC48815406
:100E600018460068032803D1B9488078B94908605A
:100E7000B6480068B7490968884205D3CC20AF4915
:100E8000086004E00BE01AE0CC20AC4908601CE0EC
:100E90000020B0490860CC20A849086015E0002077
:100EA000AD490860CC20A54908603222AB49A8486A
:100EB000FFF728FF3221A648FFF731FF05E0D820D1
:100EC0009E490860CC20086000BF00BF10BDF8B587
:100ED00000260024A24DA1480078552819D19F482A
:100EE0008078042815D19D484079AA2811D1552031
:100EF0009549087000204870062088704020C8700E
:100F000013200871AA20487132219448FFF707FF87
:100F1000F8BD9248007855281BD190484079AA28FE
:100F200017D18E488078002813D100BF59208D49F1
:100F30000860162008608820086000BF02208A49E7
:100F40000860052000078068022108430521090781
:100F5000886082480078F52806D180488078401E55
:100F60007E49085CAA2803D0002080490860CFE7AA
:100F700000207F490860002408E07848005D7C4933
:100F8000096848407A490860601CC4B27348807898
:100F9000801EA042F1DC71488078801E6F49085C99
:100FA00073490968884203D0002071490860AFE79F
:100FB000002070490860002408E06848005D6D4921
:100FC000096840186B490860601CC4B263488078A7
:100FD000801EA042F1DC61488078052819D0654860
:100FE00001785E488078801E5C4A115410468178F2
:100FF000FFF782FC0A20FFF718FB5849487800F0F9
:1010000075F90A20FFF711FB32215448FFF787FEDC
:1010100025E15248807805287DD1504840785649CE
:10102000086008460068012805D136225349284641
:1010300000F0E8FA5EE050480068022805D1362248
:101040004F49284600F0DEFA54E04B480068032878
:1010500005D136224B49284600F0D4FA4AE04648EA
:101060000068042805D136224749284600F0CAFA0C
:1010700040E041480068052805D13622434928460A
:1010800000F0C0FA36E03C480068062805D1362258
:101090003F49284600F0B6FA2CE037480068072898
:1010A00005D136223B49284600F0ACFA22E032480E
:1010B0000068082805D136223749284600F0A2FAF0
:1010C00018E02D480068092805D136223349284602
:1010D00000F098FA0EE0284800680A2805D1362268
:1010E0002F49284600F08EFA04E036222C49284683
:1010F00000F088FA20480068002866D0F5201249E0
:1011000008701D4800784870E878801D8870A878BD
:10111000C870002407E09EE0281D015D201D0A4ADA
:101120001154601CC4B2E878A042F5DC0021E878D4
:10113000001D054A1154002439E00000000002405F
:1011400000E100E030000020580400202C000020C6
:10115000F4030020180000204C000020260400208A
:10116000B60200200001005000C000501400002012
:101170002400002028000020200000209A000020E9
:10118000D0000020060100203C0100207201002058
:10119000A8010020DE010020140200204A020020E5
:1011A000800200204A48005D4640601CC4B2E878D6
:1011B000001DA042F6DCE878001D45490E54AA2126
:1011C000E878401D424A115440E0F520404908703B
:1011D000002048700B2088703E4800F087F987B2E5
:1011E0003846FFF7A7FD3C4948803C4800F07EF9AF
:1011F00087B23846FFF79EFD374988800846408809
:1012000000123349487134488078887132488088A8
:101210000012C8703048007908712F48C088001249
:10122000C8712D488079087200204872002408E0B7
:101230002748407A2649095D484025494872601C84
:10124000C4B2092CF4DBAA20214988723221244837
:10125000FFF765FD03E032212148FFF760FD00BF85
:1012600056E610B5002819DA1E4A03071B0F083B83
:101270009B089B00D2588307DC0EFF23A3409A43B0
:101280008B071B0E8407E40EA3401A43154B04077B
:10129000240F083CA408A4001A5118E0124A0323A2
:1012A0001B02D21883089B00D2588307DC0EFF2351
:1012B000A3409A438B071B0E8407E40EA3401A43F6
:1012C000094B032424021B198408A4001A5110BDE1
:1012D00058040020C4040020EC020020D4040020A4
:1012E000260400201CED00E000E100E010B50446FB
:1012F000012C0AD14949487008464078401F0871BE
:1013000006214648FFF7F8FA7CE0022C0BD10220B8
:101310004249487008464078401F087106213F48FE
:10132000FFF7EAFA6EE0032C0BD103203B4948702B
:1013300008464078401F087106213848FFF7DCFA5C
:1013400060E0042C0BD104203449487008464078F2
:10135000401F087106213148FFF7CEFA52E0052CF4
:101360000BD105202D49487008464078401F087170
:1013700006212A48FFF7C0FA44E0062C0BD10620CC
:101380002649487008464078401F087106212348C6
:10139000FFF7B2FA36E0072C0BD107201F4948703F
:1013A00008464078401F087106211C48FFF7A4FA40
:1013B00028E0082C0BD108201849487008464078CE
:1013C000401F087106211548FFF796FA1AE0092C0C
:1013D0000BD109201149487008464078401F087118
:1013E00006210E48FFF788FA0CE00A2C0AD10A20E1
:1013F0000A49487008464078401F0871062107488E
:10140000FFF77AFA1420FFF710F910BD1D20012113
:101410008140034A116000BF70470000380000207F
:1014200000E100E01E48810308600920C002486016
:101430000820012181401B4A116000BF1A48006842
:10144000910508431849086070471848006800284B
:1014500004D016480068401E14490860144800680B
:10146000142804D212480068401C11490860114831
:101470000068142804D20F480068401C0D49086019
:101480000D480068FF219131884204D20A48006863
:10149000401C09490860012003498860704700002A
:1014A0000400012800E100E00000014040000020AD
:1014B00044000020480000204C0000200F204A4932
:1014C0000862032048620846406B012108434649F0
:1014D000486300BF4448406B02210842FAD01D20F7
:1014E00001218140414A116000BF704770B501463B
:1014F0000023002400220DE095004D599D4201D3A8
:1015000095004B5995004D59A54201D895004C596D
:10151000551CEAB2042AEFDB4E680D68AD198E68DF
:10152000AD19CE68AD19ED1A2D1B680870BD00B558
:101530001D20012181402D4A8032116000BF2A48C0
:10154000006BC007C00F28D027480068012149045C
:1015500008420CD02448006880B2254909788900E7
:10156000244A505022480078401C214908701E48E7
:1015700040680121490408420CD01B48406880B2F1
:101580001D49097889001D4A50501B480078401CAD
:101590001949087001201449086315480078032888
:1015A00012DD1548007803280EDD00201049087070
:1015B000114908700F48FFF799FF114948800F48FB
:1015C000FFF794FF0E49888009480078C82802DD9B
:1015D00000200749087008480078C82802DD00206C
:1015E0000549087000BD000000000E4000E100E069
:1015F00050000020C404002051000020D40400202A
:10160000EC020020F8B5042A2CD3830712D00B7803
:10161000491C0370401C521E83070BD00B78491CD9
:101620000370401C521E830704D00B78491C0370C2
:10163000401C521E8B079B0F05D0C91ADF002023C8
:10164000DE1B08C90AE0FEF78FFDF8BD1D4608C97C
:10165000FD401C46B4402C4310C0121F042AF5D292
:10166000F308C91A521EF0D40B78491C0370401CB1
:10167000521EEAD40B78491C0370401C521EE4D45D
:1016800009780170F8BD01E004C0091F0429FBD2EC
:101690008B0701D50280801CC90700D002707047FB
:1016A00000290BD0C30702D00270401C491E02293A
:1016B00004D3830702D50280801C891EE3E7002241
:1016C000EEE70022DFE7002203098B422CD3030A56
:1016D0008B4211D300239C464EE003460B433CD47F
:1016E000002243088B4231D303098B421CD3030AE7
:1016F0008B4201D394463FE0C3098B4201D3CB0117
:10170000C01A524183098B4201D38B01C01A524146
:1017100043098B4201D34B01C01A524103098B424A
:1017200001D30B01C01A5241C3088B4201D3CB0035
:10173000C01A524183088B4201D38B00C01A524118
:1017400043088B4201D34B00C01A5241411A00D2C8
:1017500001465241104670475DE0CA0F00D0494231
:10176000031000D34042534000229C4603098B42A1
:101770002DD3030A8B4212D3FC22890112BA030A29
:101780008B420CD3890192118B4208D389019211AB
:101790008B4204D389013AD0921100E08909C30930
:1017A0008B4201D3CB01C01A524183098B4201D332
:1017B0008B01C01A524143098B4201D34B01C01A1D
:1017C000524103098B4201D30B01C01A5241C30895
:1017D0008B4201D3CB00C01A524183088B4201D304
:1017E0008B00C01A5241D9D243088B4201D34B001F
:1017F000C01A5241411A00D20146634652415B1061
:10180000104601D34042002B00D549427047634641
:101810005B1000D3404201B50020C046C04602BD67
:10182000704770477047754600F022F8AE460500D5
:1018300069465346C008C000854618B020B5FEF77B
:1018400081FD60BC00274908B6460026C0C5C0C55A
:10185000C0C5C0C5C0C5C0C5C0C5C0C5403D4900A4
:101860008D4670470446C046C0462046FEF775FCCC
:1018700000487047E404002001491820ABBEFEE791
:1018800026000200704730B47446641E2578641C3C
:10189000AB4204D3635D5B00E31830BC18471D46C0
:1018A000F8E70000001BB7000000000080F0FA021B
:1018B00010270000000000000000000000000000F1
:1018C00000805101E41800000000002054000000D6
:1018D000040100003819000054000020F406000044
:1018E0002001000080F0FA023200000080F0FA02CD
:1018F00000FF0000000000000000000003000000E6
:1019000000000000FF0000000000000000000000D8
:10191000000000000000000000000000F5000600CC
:10192000FBAA000000000000000000000000000012
:081930000000000000000000AF
:04000005000000C136
:00000001FF
