:020000040000FA
:10000000E8020020E10200000103000003030000F9
:1000100000000000000000000000000000000000E0
:1000200000000000000000000000000005030000C8
:1000300000000000000000000703000009030000AA
:100040000B0300000B0300000B0300000B03000078
:100050000B0300000B0300000B0300000B03000068
:100060000B0700000B0300000B0300000B03000054
:100070000B030000ED0500000B0300000B03000064
:100080000B0300000B0300000B0300000B03000038
:100090000B0300000B0300000B0300000B03000028
:1000A0000B0300000B0300000B0300000B03000018
:1000B0000B030000AD0700000B0300000B03000062
:1000C00000F002F800F040F80CA030C808382418FE
:1000D0002D18A246671EAB4654465D46AC4201D180
:1000E00000F032F87E460F3E0FCCB6460126334272
:1000F00000D0FB1AA246AB4633431847200A000043
:10010000400A0000103A02D378C878C1FAD85207E2
:1001100001D330C830C101D504680C6070470000BD
:100120000023002400250026103A01D378C1FBD813
:10013000520700D330C100D50B6070471FB5C046D1
:10014000C0461FBD10B510BD00F098FC1146FFF76A
:10015000F5FF00F00DF900F0B0FC03B4FFF7F2FF7B
:1001600003BC00F0B5FC000070B500F068F84E4923
:1001700008604E48006945076D0F022D03D0A800A6
:100180004B490C5801E0484804684848806900071A
:10019000000F461C3146204600F0C0FB4549086070
:1001A0004549444800684A10801800F0B7FB4349AD
:1001B000086070BD10B500233B4C236000223B4B10
:1001C0001B695907490F002911D13D4B374C236258
:1001D0003C4804E00346401E002B00DC04E0334BA7
:1001E000DB6804242342F5D000BF012212E0072976
:1001F00010D1354B2D4C2362344804E00346401E99
:10020000002B00DC04E0294BDB6804242342F5D0FA
:1002100000BF0122002A11D000BF59232C4C2360BB
:10022000162323608823236000BF02231F4C236111
:1002300000BF0023264C236000BF00BF10BDFEB5E9
:1002400024A000680090002002901848046A00135F
:10025000044227D10120C004044201D01E4800E01E
:100260001E48054601204004044201D0029519E0D1
:10027000032080032040800B69460F5CE005C00D21
:10028000801C01901F2040022040400A861C3246FC
:100290007A431146AB08019A5343184600F03EFBDF
:1002A000800002900298FEBD08000020000200506D
:1002B000FC0A00000000002040420F000400002063
:1002C00017420000E02E0000395608006656000074
:1002D000000100500102020400805101001BB70020
:1002E0000D480E4901600E4901600E4901600E4A39
:1002F0000E491160002101600D4880470D480047FC
:10030000FEE7FEE7FEE7FEE7FEE7FEE70A480B49E9
:10031000094A0B4B704700000001005059000000D3
:10032000160000008800000024000050A55A0000BC
:10033000B5010000C1000000E8000020E802002034
:10034000E800002010B5012080F3108800BF00F005
:100350004EF800F092F800F0A7FA00F0BBF800F0B9
:100360000DFA00F0BFF9002080F3108800BF10BD27
:10037000FFF7E8FF02E0024800F070F9FBE7000039
:100380002C00002010B5044621467D22D2005143A6
:10039000434A126851430846424900F0BFFA4249B5
:1003A0004861002088610520086100BF3E4800695F
:1003B000012109040842F9D010BD70B5044600259A
:1003C00000BF04E07D20C000FFF7DCFF6D1CA542EC
:1003D000F8D370BD70B50446002500BF04E07D2051
:1003E000C000FFF7EAFF6D1CA542F8D370BD00BF47
:1003F00059202E490860162008608820086000BF38
:100400002B4800680C210843294908601820294915
:1004100004E00A46491E002A00DC04E0244AD268AF
:1004200002408242F5D100BF00BF1F202049086171
:1004300021484861084640690721090208431C49D0
:100440004861002088611D4808620846006840082D
:100450004000086008464068042108431449486089
:1004600017488860401C05210907C8600020C86043
:1004700000BF0E49086000BF7047124805210907F8
:10048000486303200003C8630F4810490860012037
:10049000486000200E4948600860012048637047AA
:1004A00004000020D408000000E000E0000100503B
:1004B0000002005090D003000F0000032EC2050080
:1004C00005010210030C0000FDFF00000040005079
:1004D000004200500A207E4948620320C860881507
:1004E00088600846406801210843794948600D202A
:1004F00001218140774A116000BF704700B5382262
:10050000125C002A00D000BD734A1268002A04D190
:10051000027042700023362213540278130000F058
:10052000DEFA0705121C5F2F46575F00F52907D139
:1005300001220270002242706422674B1A6001E0BF
:10054000002202704FE0FA2904D102220270362202
:10055000115401E00022027045E0C170C278322AD5
:1005600002DD002202700AE0C278002A07D00422CD
:1005700002703622125C5218D3B23622135432E083
:100580004378021DD1543622125C5218D3B236225F
:1005900013544278521C42704278C3789A4205DB69
:1005A0000522027000224270027982701BE037221D
:1005B00011543622135C3722125C934205D000237B
:1005C000362213540022027001E0062202700AE073
:1005D000AA2902D10123382213540022027002E01A
:1005E0000022027000BF00BF00BF8CE730B5FF24BF
:1005F0003748C569012080F3108800BF000205421A
:100600000CD006E032480068C4B221463348FFF7F8
:1006100075FF2F48C069C007C00FF3D1002080F3D9
:10062000108800BF30BD10B504462948046064201E
:10063000FFF7A8FE10BD70B505460E4601202849FB
:100640000860002403E0285DFFF7EDFF641CB4425E
:10065000F9D1002022490860012070BD10B5044680
:100660003820005D012800D010BDA07881281AD064
:100670000CDC03281CD004DC012815D002281DD175
:1006800014E0042816D0112818D115E0842810D0C1
:1006900004DC822809D0832810D108E091280AD0F0
:1006A00092280BD109E009E008E007E006E005E048
:1006B00004E003E002E001E000E000BF00BF3921F8
:1006C000204600F027F900213820015500BFCBE774
:1006D0000000154000E100E00C0000202C0000208C
:1006E000004200501E48810308600920C002486093
:1006F0000820012181401B4A116000BF1A48006890
:100700009105084318490860704718480068002898
:1007100004D016480068401E144908601448006858
:10072000142804D212480068401C1149086011487E
:100730000068142804D20F480068401C0D49086066
:100740000D480068FF219131884204D20A480068B0
:10075000401C094908600120034988607047000077
:100760000400012800E100E0000001400C0000202E
:100770001000002014000020180000200F20444921
:100780000862032048620846406B01210843404943
:10079000486300BF3E48406B02210842FAD01D204A
:1007A000012181403B4A116000BF70471D2001219B
:1007B0008140384A8032116000BF3548006BC00765
:1007C000C00F28D0324800680121490408420CD0EB
:1007D0002F48006880B23049097889002F4A50506C
:1007E0002D480078401C2C49087029484068012198
:1007F000490408420CD02648406880B2284909784C
:100800008900284A505026480078401C2449087026
:1008100001201F49086320480078032808DD20488C
:100820000078032804DD00201B4908701C4908706B
:1008300019480078C82802DD0020174908701848B8
:100840000078C82802DD002015490870704770B58F
:1008500001460023002400220DE095004D599D42E1
:1008600001D395004B5995004D59A54201D89500EB
:100870004C59551CEAB2042AEFDB4E680D68AD19DD
:100880008E68AD19CE68AD19ED1A2D1B680870BDC4
:1008900000000E4000E100E01C0000206800002085
:1008A0001D0000207800002000BF59200949086081
:1008B000162008608820086000BF074800683921BA
:1008C00008430549086000BF00200249086000BFD6
:1008D000704700000001005000C0005001E004C05B
:1008E000091F0429FBD28B0701D50280801CC90790
:1008F00000D00270704700290BD0C30702D00270ED
:10090000401C491E022904D3830702D50280801CA3
:10091000891EE3E70022EEE70022DFE70022030959
:100920008B422CD3030A8B4211D300239C464EE00A
:1009300003460B433CD4002243088B4231D30309C6
:100940008B421CD3030A8B4201D394463FE0C30978
:100950008B4201D3CB01C01A524183098B4201D390
:100960008B01C01A524143098B4201D34B01C01A7B
:10097000524103098B4201D30B01C01A5241C308F3
:100980008B4201D3CB00C01A524183088B4201D362
:100990008B00C01A524143088B4201D34B00C01A4E
:1009A0005241411A00D201465241104670475DE063
:1009B000CA0F00D04942031000D3404253400022E6
:1009C0009C4603098B422DD3030A8B4212D3FC228F
:1009D000890112BA030A8B420CD3890192118B420E
:1009E00008D3890192118B4204D389013AD0921124
:1009F00000E08909C3098B4201D3CB01C01A5241DF
:100A000083098B4201D38B01C01A524143098B42A7
:100A100001D34B01C01A524103098B4201D30B0190
:100A2000C01A5241C3088B4201D3CB00C01A5241B5
:100A300083088B4201D38B00C01A5241D9D243089C
:100A40008B4201D34B00C01A5241411A00D20146D9
:100A5000634652415B10104601D34042002B00D543
:100A60004942704763465B1000D3404201B5002005
:100A7000C046C04602BD704770477047754600F0DB
:100A800023F8AE46050069465346C008C0008546B7
:100A900018B020B5FFF73AFC60BC00274908B646FD
:100AA0000026C0C5C0C5C0C5C0C5C0C5C0C5C0C57D
:100AB000C0C5403D49008D4670470446C046C0460B
:100AC0002046FFF74AFB00000048704788000020DE
:100AD00001491820ABBEFEE726000200704730B483
:100AE0007446641E2578641CAB4204D3635D5B00CE
:100AF000E31830BC18471D46F8E70000001BB7009C
:100B00000000000080F0FA02102700000000000042
:100B10000000000000000000008051013C0B0000BC
:100B20000000002020000000040100005C0B000019
:100B300020000020C80200002001000080F0FA021E
:100B40003200000080F0FA02000000000000000007
:0C0B500000000000000000000000000099
:04000005000000C136
:00000001FF
