:020000040000FA
:100000009803002019030000390300003B0300009F
:1000100000000000000000000000000000000000E0
:100020000000000000000000000000003D03000090
:1000300000000000000000003F030000410300003A
:100040004303000043030000430300004303000098
:100050004303000043030000430300004303000088
:10006000F30C0000430300004303000043030000BF
:10007000430300002906000043030000430300007F
:100080004303000043030000430300004303000058
:100090004303000043030000430300004303000048
:1000A0004303000043030000430300004303000038
:1000B00043030000790D00004303000043030000E8
:1000C00000F002F800F040F80CA030C808382418FE
:1000D0002D18A246671EAB4654465D46AC4201D180
:1000E00000F032F87E460F3E0FCCB6460126334272
:1000F00000D0FB1AA246AB46334318475C120000FF
:100100007C120000103A02D378C878C1FAD852079E
:1001100001D330C830C101D504680C6070470000BD
:100120000023002400250026103A01D378C1FBD813
:10013000520700D330C100D50B6070471FB5C046D1
:10014000C0461FBD10B510BD01F0B7F81146FFF74E
:10015000F5FF00F02BF901F0CFF803B4FFF7F2FF41
:1001600003BC01F0D3F8000070B505460C461646F6
:1001700002E00FCC0FC5103E102EFAD2082E02D38B
:1001800003CC03C5083E042E07D301CC01C5361F9E
:1001900003E021782970641C6D1C761EF9D270BDB5
:1001A00070B500F068F84E4908604E480069450790
:1001B0006D0F022D03D0A8004B490C5801E04848B0
:1001C0000468484880690007000F461C31462046F5
:1001D00000F0C3FF454908604549444800684A109B
:1001E000801800F0BAFF4349086070BD10B50023C5
:1001F0003B4C236000223B4B1B695907490F0029E8
:1002000011D13D4B374C23623C4804E00346401E6D
:10021000002B00DC04E0334BDB6804242342F5D0E0
:1002200000BF012212E0072910D1354B2D4C23626B
:10023000344804E00346401E002B00DC04E0294B58
:10024000DB6804242342F5D000BF0122002A11D02C
:1002500000BF59232C4C236016232360882323607E
:1002600000BF02231F4C236100BF0023264C2360E4
:1002700000BF00BF10BDFEB524A0006800900020A4
:1002800002901848046A0013044227D10120C004D8
:10029000044201D01E4800E01E48054601204004EB
:1002A000044201D0029519E0032080032040800B16
:1002B00069460F5CE005C00D801C01901F204002C4
:1002C0002040400A861C32467A431146AB08019A08
:1002D0005343184600F041FF800002900298FEBD93
:1002E0000800002000020050381300000000002029
:1002F00040420F000400002017420000E02E0000E2
:100300003956080066560000000100500102020440
:1003100000805101001BB7000D480E4901600E49D5
:1003200001600E4901600E4A0E4911600021016012
:100330000D4880470D480047FEE7FEE7FEE7FEE771
:10034000FEE7FEE70A480B49094A0B4B70470000DD
:100350000001005059000000160000008800000055
:1003600024000050A55A0000ED010000C10000006B
:1003700098010020980300209801002010B501206A
:1003800080F3108800BF00F050F800F094F800F0FF
:1003900080FD00F046FE00F0BBF800F0D5FC00F058
:1003A00095FC002080F3108800BF10BDFFF7E6FF2A
:1003B00002E0024800F095F9FBE70000B7000020DA
:1003C00010B5044621467D22D2005143434A1268AB
:1003D00051430846424900F0C0FE424948610020AE
:1003E00088610520086100BF3E48006901210904B9
:1003F0000842F9D010BD70B50446002500BF04E0E6
:100400007D20C000FFF7DCFF6D1CA542F8D370BD56
:1004100070B50446002500BF04E07D20C000FFF752
:10042000EAFF6D1CA542F8D370BD00BF59202E49CC
:100430000860162008608820086000BF2B4800680C
:100440000C210843294908601820294904E00A467C
:10045000491E002A00DC04E0244AD268024082429D
:10046000F5D100BF00BF1F20204908612148486125
:10047000084640690721090208431C4948610020D9
:1004800088611D480862084600684008400008600E
:1004900008464068042108431449486017488860AA
:1004A000401C05210907C8600020C86000BF0E4934
:1004B000086000BF70471248052109074863032000
:1004C0000003C8630F4810490860012048600020FD
:1004D0000E4948600860012048637047040000200E
:1004E000D408000000E000E00001005000020050CD
:1004F00090D003000F0000032EC20500050102107A
:10050000030C0000FDFF00000040005000420050BE
:100510000A20F84948620320C860881588600846A8
:10052000406801210843F34948600D2001218140C2
:10053000F14A116000BF704700B53822125C002AF2
:1005400000D000BDED4A1268002A04D1027042704A
:100550000023362213540278130000F0DEFE070554
:10056000121C5F2F46575F00F52907D10122027048
:10057000002242706422E14B1A6001E00022027006
:100580004FE0FA2904D1022202703622115401E010
:100590000022027045E0C170C278322A02DD0022DA
:1005A00002700AE0C278002A07D0042202703622C4
:1005B000125C5218D3B23622135432E04378021D33
:1005C000D1543622125C5218D3B2362213544278D8
:1005D000521C42704278C3789A4205DB05220270B1
:1005E00000224270027982701BE0372211543622B9
:1005F000135C3722125C934205D000233622135439
:100600000022027001E0062202700AE0AA2902D14B
:100610000123382213540022027002E000220270EB
:1006200000BF00BF00BF8CE730B5FF24B148C569EB
:10063000012080F3108800BF000205420CD006E0C4
:10064000AC480068C4B22146AD48FFF775FFA94821
:10065000C069C007C00FF3D1002080F3108800BF2D
:1006600030BD10B50446A34804606420FFF7A8FE1F
:1006700010BD70B505460E460120A2490860002451
:1006800003E0285DFFF7EDFF641CB442F9D10020C0
:100690009C490860012070BD10B59B480078002877
:1006A0001ED0012000052221984AD16011464860E1
:1006B00001211161BFF3608F00BF00BF9349096939
:1006C0000029FBD100BF08229149500400F023FC0F
:1006D00040229049904800F01EFC00208A49087092
:1006E00010BD30B58DB0054600243421684600F0B9
:1006F00032FD3820405D012801D00DB030BD287991
:1007000081281AD00CDC03287AD004DC01284DD0D3
:1007100002284AD1B3E0042873D01128F9D108E2A5
:1007200084286FD004DC82286FD08328F1D1D1E0F7
:10073000912869D09228ECD174E2F52168460170C5
:10074000FA214170022181708121C170E87811285D
:1007500003DD01206946087112E000206946087136
:10076000002406E0281D611C405C6A490855601C95
:10077000C4B2E878401EA042F4DC0120624908704F
:10078000012409E0684640796946095D4018C1B214
:1007900068464171601CC4B2052CF3DBAA2069468F
:1007A000887107216846FFF764FF77E2F521684604
:1007B0000170FA214170112181700121C170002462
:1007C00006E05448015D201D6A461154601CC4B205
:1007D000102CF6DB012409E06846007D6946095DBE
:1007E0004018C1B268460175601CC4B2142CF3DB1A
:1007F000AA206946487516216846FFF73AFF4DE280
:10080000B5E018E1DDE000E040E1F5216846017067
:10081000FA214170022181708221C170E87811288B
:1008200003DD01206946087113E000206946087164
:10083000002407E0281D611C415C3648103001553A
:10084000601CC4B2E878401EA042F3DC01202E49AF
:100850000870012409E0684640796946095D40183E
:10086000C1B268464171601CC4B2052CF3DBAA20FA
:100870006946887107216846FFF7FBFE0EE2F52105
:1008800068460170FA214170112181700221C17006
:10089000002407E01F481030015D201D6A461154F6
:1008A000601CC4B2102CF5DB012409E06846007D11
:1008B0006946095D4018C1B268460175601CC4B242
:1008C000142CF3DBAA206946487516216846FFF709
:1008D000D0FEE3E1F52168460170FA214170022162
:1008E00081708321C170E878112817DD01206946E5
:1008F000087126E00000154000E100E048000020FB
:10090000B7000020004200504500002000C0005009
:100910003D000020770000200800100000206946FC
:100920000871002406E0281D611C415CE348015564
:10093000601CC4B2E878401EA042F4DC0120E0490B
:100940000870012409E0684640796946095D40184D
:10095000C1B268464171601CC4B2052CF3DBAA2009
:100960006946887107216846FFF783FE96E1F52105
:1009700068460170FA214170112181700321C17014
:10098000002406E0CD48015D201D6A461154601C1C
:10099000C4B2102CF6DB012409E06846007D6946EC
:1009A000095D4018C1B268460175601CC4B2142CC0
:1009B000F3DBAA206946487516216846FFF759FE01
:1009C0006CE1F52168460170FA21417002218170C5
:1009D0008421C170E878112803DD0120694608717F
:1009E00013E0002069460871002407E0281D611CFF
:1009F000415CB24810300155601CC4B2E878401E1A
:100A0000A042F3DC0120AE490870012409E06846E9
:100A100040796946095D4018C1B268464171601C61
:100A2000C4B2052CF3DBAA20694688710721684609
:100A3000FFF71FFE32E1F52168460170FA2141708F
:100A4000112181700421C170002407E09B481030FF
:100A5000015D201D6A461154601CC4B20C2CF5DBEC
:100A6000012409E06846007D6946095D4018C1B26D
:100A700068460175601CC4B2142CF3DBAA206946D9
:100A8000487516216846FFF7F4FD07E16879030011
:100A900000F043FC082205090E12161A1E22A8793E
:100AA0008849487018E0A87940B28649887013E0F8
:100AB000A8798449C8700FE0A879824908710BE0D1
:100AC000A8798049487107E0A8797E49887103E0D8
:100AD000A8797C49C87100BF00BFF5216846017044
:100AE000FA214170022181709121C170E8780328B8
:100AF00003D001206946087105E0012070490870A3
:100B0000002069460871012409E068464079694679
:100B1000095D4018C1B268464171601CC4B2052C21
:100B2000F3DBAA206946887107216846FFF7A1FD1B
:100B3000B4E0F52168460170FA21417018218170F6
:100B40001121C17060480178684601715E484178A2
:100B5000684641715C488178684681715A48C1781D
:100B60006846C17158480179684601725648417912
:100B70006846417254488179684681725248C17909
:100B80006846C1725048017A684601734E48417AFE
:100B9000684641734C48817A684681734A48C17AF5
:100BA0006846C17347484179684601744548817970
:100BB000684641744348C179684681744148417828
:100BC0006846C1744048017B684601753D4881789C
:100BD000684641753B48C178684681753948017956
:100BE0006846C1753848417B684601763648817B46
:100BF0006846417601218176012409E06846C07E7D
:100C00006946095D4018C1B26846C176601CC4B22D
:100C10001B2CF3DBAA20694608771D216846FFF7E5
:100C200028FD3BE0687927494870A87940B2887070
:100C3000E879C870287A0871687A4871A87A88714A
:100C4000E87AC871F52168460170FA2141700221E5
:100C500081709221C170E878082803D0012069468C
:100C6000087105E0002069460871012014490870E8
:100C7000012409E0684640796946095D4018C1B21F
:100C800068464171601CC4B2052CF3DBAA2069469A
:100C9000887107216846FFF7ECFC00BF00BF3421D4
:100CA000684600F058FA3921284600F052FAFFF75A
:100CB000F3FC00213820415500BF1EE597000020BD
:100CC000450000203D0000206800002018488103F6
:100CD00008600920C0024860082001218140154AAF
:100CE000116000BF1448006891050843124908606C
:100CF000704712480068002804D010480068401E61
:100D00000E4908600E480068142804D20C48006898
:100D1000401C0B4908600B480068142804D209489D
:100D20000068401C0749086001200349886070473B
:100D30000400012800E100E000000140480000201C
:100D40004C000020500000200F204449086203207E
:100D500048620846406B012108434049486300BF90
:100D60003E48406B02210842FAD01D2001218140FB
:100D70003B4A116000BF70471D2001218140384A65
:100D80008032116000BF3548006BC007C00F28D00B
:100D9000324800680121490408420CD02F480068FD
:100DA00080B23049097889002F4A50502D48007888
:100DB000401C2C4908702948406801214904084218
:100DC0000CD02648406880B2284909788900284A12
:100DD000505026480078401C2449087001201F49C3
:100DE000086320480078032808DD2048007803289D
:100DF00004DD00201B4908701C4908701948007860
:100E0000C82802DD00201749087018480078C82853
:100E100002DD002015490870704770B501460023B7
:100E2000002400220DE095004D599D4201D395000C
:100E30004B5995004D59A54201D895004C59551C68
:100E4000EAB2042AEFDB4E680D68AD198E68AD1961
:100E5000CE68AD19ED1A2D1B680870BD00000E405C
:100E600000E100E054000020F000002055000020C8
:100E70000001002022217D4AD160114648600121F5
:100E80001161BFF3608F00BF784909690029FBD168
:100E9000704710B500F0E1F8754840680421084338
:100EA0007349486071480068392108436F490860F8
:100EB00000BF00206F49086000BF10BDF8B50446B0
:100EC0000E46154600200090002D00D1F8BD00F020
:100ED000C4F827461BE020460021644AD160114631
:100EE00048600021916001211161BFF3608F00BF54
:100EF00000BF5E4909690029FBD15C4989680091FE
:100F000000983060241D361D1037281FC5B2002DF3
:100F1000E1DC00BFDAE7F8B505460C4616460027C7
:100F2000002E01D10020F8BD00F097F82CE02078C9
:100F3000617809024018A17809044018E17809068F
:100F400040180746294638462122484BDA601A469F
:100F50005160906001221A61BFF3608F00BF00BF33
:100F6000424A1269002AFBD100BF241D2D1D301FEB
:100F7000C6B2002E00D108E0680A0121C9028842E9
:100F800002D92846FFF776FFD1E700BF0120CAE764
:100F900037484068042108433549486033480068B1
:100FA0004008400031490860084600682021884315
:100FB0002E490860704710B5002413E02E48005DEC
:100FC0002E4908552E48015D2C48103001552D48FA
:100FD000015D2A48303001552B48015D27482030FB
:100FE0000155641C102CE9DB61202849087003209E
:100FF0004870002088700120C87008710020487176
:101000008871C87101200005FFF734FF08221F49CD
:101010005004FFF780FF402218491D48FFF77BFF6F
:1010200010BD10B508221B495004FFF747FF0822E6
:101030001849164800F030F8402216491448FFF7C6
:101040003DFF402213490D4800F026F80F48007874
:10105000612801D0FFF7AFFF10BD59200549086096
:1010600016200860882008607047000000C000500B
:1010700000020050000100500D0000207700002009
:101080001D000020580000202D0000203D00002001
:101090000800100010010020F8B5042A2CD38307A3
:1010A00012D00B78491C0370401C521E83070BD0D2
:1010B0000B78491C0370401C521E830704D00B7828
:1010C000491C0370401C521E8B079B0F05D0C91A88
:1010D000DF002023DE1B08C90AE0FFF745F8F8BD52
:1010E0001D4608C9FD401C46B4402C4310C0121FC9
:1010F000042AF5D2F308C91A521EF0D40B78491C01
:101100000370401C521EEAD40B78491C0370401C2B
:10111000521EE4D409780170F8BD01E004C0091F33
:101120000429FBD28B0701D50280801CC90700D09F
:101130000270704700290BD0C30702D00270401C18
:10114000491E022904D3830702D50280801C891E10
:10115000E3E70022EEE70022DFE7002203098B42EB
:101160002CD3030A8B4211D300239C464EE0034646
:101170000B433CD4002243088B4231D303098B42FA
:101180001CD3030A8B4201D394463FE0C3098B4230
:1011900001D3CB01C01A524183098B4201D38B0189
:1011A000C01A524143098B4201D34B01C01A52412C
:1011B00003098B4201D30B01C01A5241C3088B4271
:1011C00001D3CB00C01A524183088B4201D38B005C
:1011D000C01A524143088B4201D34B00C01A5241FE
:1011E000411A00D201465241104670475DE0CA0FD5
:1011F00000D04942031000D34042534000229C4695
:1012000003098B422DD3030A8B4212D3FC2289019E
:1012100012BA030A8B420CD3890192118B4208D374
:10122000890192118B4204D389013AD0921100E0D6
:101230008909C3098B4201D3CB01C01A52418309EA
:101240008B4201D38B01C01A524143098B4201D317
:101250004B01C01A524103098B4201D30B01C01A42
:101260005241C3088B4201D3CB00C01A52418308BC
:101270008B4201D38B00C01A5241D9D243088B4212
:1012800001D34B00C01A5241411A00D201466346B5
:1012900052415B10104601D34042002B00D5494219
:1012A000704763465B1000D3404201B50020C04642
:1012B000C04602BD704770477047754600F022F87F
:1012C000AE46050069465346C008C000854618B0C2
:1012D00020B5FFF737F860BC00274908B64600265E
:1012E000C0C5C0C5C0C5C0C5C0C5C0C5C0C5C0C5D6
:1012F000403D49008D4670470446C046C0462046E2
:10130000FEF72BFF004870473801002001491820E4
:10131000ABBEFEE726000200704730B47446641E80
:101320002578641CAB4204D3635D5B00E31830BCDA
:1013300018471D46F8E70000001BB700000000003A
:1013400080F0FA02102700000000000000000000FA
:101350000000000000805101781300000000002010
:101360005800000004010000D013000058000020C5
:10137000400300002001000080F0FA02320000006B
:1013800080F0FA02005457332D31362020202020DF
:1013900020202020205457332D313600000000003B
:1013A0000000000000444F4E59414E2020202020D4
:1013B000202020202000000000000000000000008D
:1013C000000000000000000000000000000000001D
:04000005000000C136
:00000001FF
